:020000040800F2
:10000000B8050020455000081D5000081F5000088A
:10001000215000082350000825500008000000006F
:100020000000000000000000000000002750000851
:1000300029500008000000002B5000082D50000837
:100040007D50000881500008855000088950000844
:100050008D500008915000089550000899500008F4
:100060009D500008A1500008A5500008A9500008A4
:10007000AD500008B1500008B5500008B950000854
:10008000BD500008C1500008C55000080000000025
:10009000000000000000000000000000C95000083F
:1000A000CD500008D1500008D5500008D9500008A4
:1000B000DD5000080000000000000000E1500008D2
:1000C000E5500008E9500008ED500008F150000824
:1000D000F5500008F9500008FD50000801510008D3
:1000E0000551000809510008000000000000000050
:1000F0000000000000000000000000000000000000
:1001000000000000000000000000000000000000EF
:1001100000000000000000000D5100080000000079
:100120001151000815510008195100081D5100080F
:100130002151000800000000000000000000000045
:1001400025510008295100082D510008315100089F
:1001500035510008395100083D510008415100084F
:10016000455100084951000800000000000000004F
:10017000000000004D5100080000000000000000D9
:1001800051510008555100085951000840F0200015
:1001900070472DE9F14FB0B0924604910DF1420144
:1001A0003A9A2B9199464A7000200AE01AF8011BEE
:1001B0000498309A90470028049000F042860D98E9
:1001C000401C0D909AF8000050B12528EED1002176
:1001D00000220791089209910A920B910C9204E077
:1001E0000D9800F030BE41F001011AF8010F2028EF
:1001F000F9D023280CD02B2804D02D2805D0302866
:1002000009D00BE041F00201EFE741F00401ECE717
:1002100041F00801E9E741F01001E6E72A280FD193
:10022000D9F8002052F8040BC9F8002000280F90DC
:1002300003D540420F9041F004010AF1010A14E095
:100240000F92DFF8083C0AE00F98984205DA00EBBD
:10025000800402EB4402303A0F920AF1010A9AF844
:100260000020A2F130000A28EED39AF800002E28D0
:1002700003D04FF0FF320E9229E01AF8010F2A281E
:1002800009D1D9F8000050F8042BC9F800000E92EB
:100290000AF1010A1BE02D280CBF0AF1010A002017
:1002A00000220E92DFF8A44B0BE040B90E9AA24256
:1002B00005DA02EB820503EB4503303B0E930AF1AE
:1002C000010A9AF80030A3F130020A2AEDD3ADF802
:1002D00040100FF67C309AF8001000F0D1FE08B103
:1002E0001AF8010B8DF842009DF84200682805D1EC
:1002F0009AF8000068280CD1622106E06C2804BF3F
:100300009AF800006C2804D171218DF842100AF18E
:10031000010A12A806901AF801BBBBF125012CD0E6
:100320001C3900F09481091F022940F29081133991
:1003300000F0B984093900F08A81891E00F04E85E9
:10034000491E00F0FB84491E022940F28081091FEA
:1003500000F0F484491F00F0EF80491E00F0A384F0
:10036000491E00F0D780C91E0CD0891E00F09B8466
:10037000C91E00F0988400F03CBD0123079325219D
:1003800000F034BDD9F8000050F8044BC9F8000063
:10039000002C059440F0AB802B994878002800F0A1
:1003A000A1804FF0FF340FF6B02000F079FE201A44
:1003B00040F0478500F029BD01236A4602A9304676
:1003C00000F00EFE002840F03C856D1EF4D1309602
:1003D000079D12AF75B1309E17F8011B0498B04706
:1003E0000028049000F02D850D98401C6D1E0D9086
:1003F000F2D130960A9D3021002D8DF800100CDDD1
:10040000309E01236A4602A9304600F0E9FD00282B
:1004100040F017856D1EF4D13096059F089D75B18B
:10042000309E17F8011B0498B0470028049000F094
:1004300008850D98401C6D1E0D90F2D130960B9DD5
:100440003021002D8DF800100CDD309E01236A460E
:1004500002A9304600F0C4FD002840F0F2846D1E71
:10046000F4D1309605980899099D471875B1309ECA
:1004700017F8011B0498B0470028049000F0E184AD
:100480000D98401C6D1E0D90F2D130960C9D3021C0
:10049000002D8DF800100CDD309E01236A4602A964
:1004A000304600F09DFD002840F0CB846D1EF4D155
:1004B00030969DF8400041077FF584AE2020002C47
:1004C0008DF800007FF77EAE309D01236A4602A9B9
:1004D000284600F085FD002840F0B384641EF4D166
:1004E00030956FE60FF65830059000F08EBC0E9DEB
:1004F000002D04D5204600F0F3FD044607E02A460F
:10050000204600F009FE002814BF041B2C46089466
:1005100000F07BBCD9F8001051F8040BC9F80010AA
:1005200020F00004002121F0FF35CDE9024512AB97
:100530000593782100F04EBC2B99487820B14FF0FC
:10054000FF340FF6CC2030E79DF84200622860D0DF
:10055000682817D06A283FD06C2806D0712847D069
:1005600074282CD07A281DD062E0D9F8001051F8F8
:10057000040BC9F80010002866D14FF0FF340FF6C5
:10058000A82012E7D9F8001051F8040BC9F80010A0
:1005900020B94FF0FF340FF6902006E70D99018047
:1005A00000F033BCD9F8001051F8040BC9F8001062
:1005B000002849D14FF0FF340FF66C20F5E6D9F84A
:1005C000001051F8040BC9F8001000283CD14FF07E
:1005D000FF340FF65420E8E6D9F8001051F8040B68
:1005E000C9F8001080B94FF0FF340FF63C20DCE66C
:1005F000D9F8001051F8040BC9F8001020B94FF0D9
:10060000FF340FF62420D0E60D9AD317C0E900235B
:10061000FBE3D9F8001051F8040BC9F8001020B919
:100620004FF0FF340FF60020BFE60D990170ECE3A8
:10063000D9F8001051F8040BC9F8001020B94FF098
:10064000FF340FF6E410B0E60D990160DDE39DF88C
:1006500042004C2807BFD9F80010CA1DD9F8000085
:10066000C21D22F00702C9F80020D2E900010832B9
:10067000C9F80020CDE90201C80F02D007982D214A
:100680000AE0BDF84000810702D507982B2103E05E
:10069000C00705D50798202112AA1154401C0790C5
:1006A00012A807994BF0200300EB010CDDE90201D1
:1006B000CDE92C01612BCDF814C021AC0BD00E98E4
:1006C000002848BF062105D404BF4BF0200067284E
:1006D00001D101210E91DDE902014F0047EAD077F7
:1006E0007E15FF174FF0FF32974208BF964210D198
:1006F000090341EA10510003002908BF002808D06F
:10070000ABF1610503211A2D089118D30FF63811AA
:1007100010E0DDE902014A00521512F1010F11D17A
:1007200008030FD1ABF1610503211A2D08911FD3E6
:100730000FF61C110322604600F01AFD65E30FF668
:100740000411F7E7DDE902016A4600F065FDCDE935
:1007500002014BF02000612811D105983021017071
:10076000821C0592BBF1610F0CBF7821582102E079
:100770000FF6D801DEE741700798801C0790DDE98D
:10078000020120F0000231F0004308BF002A02D12C
:100790000026002542E14BF02008B8F1610F40F03F
:1007A00092800E98002847BF21210191401C0190A2
:1007B000019FDDE92C017F1C00220023DDE90245B9
:1007C00000F062FD38BF85F0004500998DF8842067
:1007D000091F002F00910DF1850632DD20462946C4
:1007E0000022002300F06AFD2BD21C2200F080FDC5
:1007F00004460D4600F01AFEFF1F002F804609DD5B
:1008000000F030FE02460B462046294600F0F2FE7C
:1008100004460D46F01D0721B8F1000F0CDD491EFE
:100820005EBF08F00F0200F8012D4FEA2818F3D53B
:1008300002E0002200F8012D491EFAD5C61D002F46
:10084000CCDC0DF18500361A01980DF18504864245
:10085000D8BF304600282FD4B04206DA0DF185010A
:100860000A5C082AA8BF0F2100DA0021024621AB4A
:10087000134400E0401E13F80159521E8D42F9D076
:100880000F2904D10DF185018B5C5B1C8B54002A70
:1008900004D50099091D21AC401C0091411E0BD4C8
:1008A000621813783033DDB23A2DA4BF5B443A3B73
:1008B000491E02F80139F4D50E99002940F1AC80A7
:1008C000421E0E92A8E00099DFF8042747F29750E5
:1008D000414391FBF2F20092DDE92C45C2F107029F
:1008E000002A25F0004504DD2046294600F04CFB97
:1008F0000BE052420020DFF8DC1600F045FB024618
:100900000B462046294600F0E7FE04460D46B8F1A6
:10091000660F06BF009F0A3706270E983F18142F50
:10092000C8BF142730208DF884000DF18506002FF4
:1009300034DD2046294600F0F3FF01460A4606F161
:10094000080304200A26B2FBF6F606EB860EA2EB9D
:100950004E02303203F8012C0A22B6FBF2F202EB0F
:10096000820EA6EB4E063036401E03F8026DE9D12A
:10097000083F002F03F10806D9DD084600F0E2FF2A
:1009800002460B462046294600F034FE0022DFF8DE
:10099000483600F0E5FF04460D46CAE70DF1850034
:1009A000361A0DF1850404E00098401E761E009072
:1009B000641C20783028F7D0B8F1660F02D1009976
:1009C000491C04E0B8F1650F0CBF012100210E980D
:1009D00008188642B8BF701E00281DD4B04204DA41
:1009E000215C3429C8BF392100DC30210246631E56
:1009F0009D1800E0401E15F80169521E8E42F9D084
:100A0000392902D1A15C491CA154002A04D50099BE
:100A1000491C1C46401C00910646009D01F076F8DA
:100A2000406A0778DDF8388030B2002802DC012601
:100A30000FF220644BF02000662808BF6D1C16D012
:100A4000672846D128B210F1040F48DB404546DA4A
:100A50009DF840006D1C010703D430B24045D8BF5B
:100A6000804628B2B8EB000848BF4FF000080FFAE4
:100A700085FBBBF1000F00F3B5800898411C08917D
:100A8000302205990A54B8F1000F03DC9DF84000AC
:100A9000010704D50898411C089105990F5418EBDB
:100AA0000B0FB8BFC8F100052DB26842A84432B29E
:100AB0000B909045B8BF4646059B089836B20996FC
:100AC00032462146184400F053FBA8EB06000C9078
:100AD000D2E0BBF1610F17D14FF0700B19E030B2CB
:100AE000404504DA9DF840100A0758BF8046B8F127
:100AF000010848BF4FF00008BBF1670F14BF4FF06B
:100B0000450B4FF0650B04E0BBF1410F08BF4FF000
:100B1000500B0898411C0891B8F1000F059914F882
:100B2000012B0A5403DC9DF8400001071AD50898F0
:100B3000411C0891B8F1000F05990F5412DD761E83
:100B400030B28045B8BF46460598089B32B2214670
:100B5000184400F00DFB089936B271180891A8EB03
:100B600006000B9005980899084429B2002980F8DE
:100B700000B003D42B224270821C04E02D2242706C
:100B80000D46821C6D4200212CAB28460AE004462B
:100B90000A2094FBF0F000EB8005A4EB450403F879
:100BA000014B491C00B20028F1DC012906DC4BF0A6
:100BB0002000652804BF302002F8010B00292CAB6F
:100BC00008D1302002F8010B06E0491E585C303095
:100BD00002F8010B0029F8DC059908980844121A5C
:100BE000099249E030B229B288421CDA0598089B84
:100BF00032B22146184400F0BBFA089936B2711897
:100C00000891ABEB0600B8F1000F0B9003DC9DF8E8
:100C10004000020704D5059847540999491C0991D9
:100C2000CDF8308028E00598089B2AB22146184468
:100C300000F09EFA0898761B5844B8F1000F08900F
:100C400003DC9DF840100A0703D5411C0891059963
:100C50000F5430B28045B8BF46460598089B32B263
:100C600004EB0B01184400F083FA089836B23018F0
:100C70000890A8EB06000B909DF8400000F01400CF
:100C8000102840F0C280079A08990B988A18099991
:100C900082180C988A1882180F98824280F2B580C8
:100CA000821A0A92B1E09DF84200622808D06828B2
:100CB0000ED06A2814D06C281FD0712810D01CE0E8
:100CC000D9F8001051F8040BC9F80010C0B21AE0AE
:100CD000D9F8001051F8040BC9F8001080B212E0E6
:100CE000D9F80000C21D22F00702C9F80020D2E99D
:100CF00000010832C9F8002006E0D9F8001051F8C8
:100D0000040BC9F800100021CDE902019DF8400054
:100D100001075AD5DDE90223002B08BF002A54D071
:100D20004BF02000782850D1079812A930220A549D
:100D3000401C431C079301F800B046E09DF84200B8
:100D4000622808D068280ED06A2814D06C281FD0DA
:100D5000712810D01CE0D9F8001051F8040BC9F824
:100D6000001040B21AE0D9F8001051F8040BC9F88D
:100D7000001000B212E0D9F80000C21D22F00702F4
:100D8000C9F80020D2E900010832C9F8002006E0C5
:100D9000D9F8001051F8040BC9F80010C117CDE9BB
:100DA0000201002902D507982D210AE0BDF8400074
:100DB000810702D507982B2103E0C00705D50798C6
:100DC000202112AA1154401C079012A8079901442F
:100DD0000591594602A800F04DF816E00120079051
:100DE000D9F8000050F8041BC9F800008DF848102D
:100DF0000BE001212522BBF1000F07918DF848205F
:100E000003D0022207928DF849B00F9A07980A99E9
:100E10000C9C121A0898521A0B99121A0998521A15
:100E2000121A9DF84000141B41073FF5D1AA20205B
:100E3000002C8DF800007FF7CBAA309E2546FFF7E7
:100E4000BBBA4FF0FF3031B0BDE8F08FCBCCCC0C4B
:100E5000686A6C747A4C00007072696E74665F73B5
:100E60003A2062616420257320617267756D656E3A
:100E7000740000002DE9FC4707468A463C6950464D
:100E80006F2808BF082505D0FFF780F9782814BF20
:100E90000A251025D7E900013C2680468946BAF18B
:100EA000640F18BFBAF1690F05D1002903D5D8F135
:100EB000000869EB4909B9F1000F08BFB8F1000F4C
:100EC0000CD1386B50B9082D3AD197F8380001078A
:100ED00036D530223B2684F83B2031E08DF800A047
:100EE000404649462A46EB1700F014FE3032D0B295
:100EF000761E3A2801960EDAA255404649462A4601
:100F0000EB1700F007FE80465FEA010908BFB8F161
:100F1000000F05D108E09DF800001218513AEBE7E8
:100F2000F868A1198842DBD3082D09D197F8380059
:100F3000010705D5A05D302802D0761E3020A055CF
:100F4000C6F13C02BA61A119F960386B824208DA35
:100F5000821A3A624FF6EF70398F01403987BDE847
:100F6000F38700280ED597F8380000F014001028F9
:100F700008D17B6B7969386A5B1A1B1A9A1A002AA6
:100F8000C8BF3A62BDE8F3872DE9D04306460F4655
:100F900014464FF00008DFF8449012E0E00707D550
:100FA00042464B463046394600F0DAFC06460F46CC
:100FB0004046494642464B4600F0D2FC641080460B
:100FC0008946002CEAD130463946BDE8D08300007E
:100FD000A08601000000F03F84D797410000244024
:100FE000F8B505460E4617461C4600205CB117F8BA
:100FF000011BB068A847B06030B1F06A401CF062D5
:101000000020641EF3D1F2BD4FF0FF30F2BD0000AE
:101010007072696E74665F733A20256E206469731E
:10102000616C6C6F776564007072696E74663A20EB
:1010300062616420256E20617267756D656E740053
:10104000000000006E616E004E414E00696E660049
:10105000494E460030000EE0026843680244083002
:101060005FEAC37C44BF4B445B1E52F804CB43F899
:1010700004CB091FF9D150F8041B0029ECD17047AB
:10108000C9B202788A421AB11CBF10F8012FF9E7E1
:1010900018BF002070470268531C0360117070472E
:1010A00080B500B906A005490B681BB122220021BA
:1010B000984701E000F046FE222002BDB00100206A
:1010C000636F6E73747261696E742068616E646CB4
:1010D00065723A20626164206D65737361676500B3
:1010E00000F10103810704D010F8011B820781B1D0
:1010F000FAD10268A2F10131914311F0803104BFAD
:1011000050F8042FF6E709BAB1FA81F100EBD100EB
:10111000401CC01A70472E00C9B2830706D0521E69
:1011200022D310F8013B9942F7D11FE0083A13D3BC
:1011300002F1040241EA012141EA014150F8043B75
:10114000121F21BF4B40A3F1013C2CEA030C1CF001
:10115000803FF3D0C9B2001F083210F8013B521E85
:1011600028BF91EA030FF8D818BF0120401E70472E
:1011700062B38B0708D0521E11F8013B00F8013B07
:1011800000F024808B07F6D1830740F0208000BF59
:10119000103A07D330B4B1E83810103AA0E838104C
:1011A000F9D230BC530724BFB1E80810A0E80810FA
:1011B00044BF51F8043B40F8043BD20724BF31F848
:1011C000022B20F8022B44BF0B7803707047121FCC
:1011D00017D35B0009D151F8043B20F8023B1B0CEC
:1011E000121F20F8023BF6D20BE051F8043B00F846
:1011F000013B1B0A20F8023B1B0C121F00F8013BAD
:10120000F3D238BF121D521E24BF11F8013B00F863
:10121000013BF8D87047000010B5144600F002F802
:10122000226010BDC1F30A5343B14A0012F5001FFA
:1012300028D2A3F2FE32A1EB0251704750EA410CD2
:1012400020D001F0004C31EA0C01B1FA81F204BF68
:10125000B0FA80F3D2180B3AB2F120032CBF00FA97
:1012600003F1914041EA0C013EBFC2F1200C20FA8B
:101270000CF319439040524240F2FD33D21A01EB75
:10128000035170470022704741EA030C50EA4C0CAE
:1012900052EA0C0C4FF4001C09D307D01CEB410F91
:1012A0009CBF1CEB430F8B4208BF824270471CEB74
:1012B000430FFBD8994208BF9042704741EA030CA4
:1012C00050EA4C0C52EA0C0C4FF4001C09D307D026
:1012D0001CEB410F9CBF1CEB430F994208BF90428F
:1012E00070471CEB410FFBD88B4208BF824270470E
:1012F000124254D440F2FF7C1CEA11530FD06345D4
:1013000031D09B1863453CBF01EB0251704701F09F
:10131000004141EA0C510020AFF30080704750EAD1
:10132000410320D001F0004C91EA0C011CD0B1FA2D
:1013300081F30B3B9A420DD9D21A994051EA0C0124
:10134000C3F1200C20FA0CFC61449840531C40F27D
:10135000FF7CD7E7914041EA0C01C2F1200C20FA52
:101360000CF3194390407047B0FA80F31533202BEB
:10137000E0D3202AEED3203A203B9A4209D9D21A50
:1013800000FA03F141EA0C010020531C40F2FF7CFB
:10139000B8E700FA02F141EA0C010020704752421E
:1013A00040F2FF7C1CEA11530DD06345DBD0B2EB59
:1013B000030C3CBFA1EB025170470CF1010221EA82
:1013C000035141F4801150EA410CCCD001F0004CA3
:1013D000352A27DC30B481EA0C01B2F1200309DAA6
:1013E000C2F12003044601FA03F5D0402843D1405E
:1013F0009C400CE0C3F12002450020FA03F418BF22
:1014000044F0010421FA03F091400C43002174F1EF
:10141000004550F1000051EB0C01244230BC7FF438
:101420007BAF70476146002076E70000C1F30A53A6
:1014300040F21E42D31A0CDDCA0283F3070342EACC
:10144000505242F00042DA4002EBE17282EAE1706F
:1014500070476FEAE17203F2E13008B182F00040B8
:101460007047000010F0004160B148BF4042B0FA40
:1014700080F29040D21CC2F5846241EA025202EB33
:10148000D021400570470000841A71EB030604D296
:101490006E40001BB141121973414FF4001C1CEB4C
:1014A000410F34BF7CEB430683E00C0DA4EB1356D5
:1014B000362E00F37C80012E45EAC32341DC43EA4B
:1014C000525312BFD20292025B08240545EAC121A1
:1014D00041EA5051D2EBC020994125D407D1B0FA4E
:1014E00080F610FA06F162D00020203608E0B1FA4A
:1014F00081F6B140C6F1200220FA02F21143B04059
:101500004FEAF474B4EB465434F001064FEA740425
:101510000AD8D6F50016760D04F00044F04061FAC2
:1015200006F25040F1404840C00A40EA415021F0E4
:10153000004128BF5FEA500550F1000044EBD12183
:1015400035E0DB0A45EAC121C90AB6F120050EDD06
:1015500042EA0242120CC5F1200603FA06F6EB40FD
:1015600042EA06056D42984161F100010DE062FA20
:1015700006F5F240554063FA06FC82EA0C02F3409D
:101580005A406D42904161EB030111F4801F05D177
:10159000641E620502D06D004041494121F4801172
:1015A000430875F1004350F1000041EB045170BC59
:1015B00070471CEB410F15D223F0004352EA43065B
:1015C0000BD04FEA4C0CBCEB410F04D80C0D661E3F
:1015D000342EB7DDEBE7801A994150EA410608BF87
:1015E0000021E4E708BF1CEB430F28BF6FF00001A8
:1015F000DDE7000070B491EA030F4FF000457FF57E
:1016000043AF6B40841A71EB030603D2001BB14158
:10161000121973414FF4001C1CEB410F34BF7CEBDB
:10162000430442E00C0DA4EB1356352E4FDC45EA83
:10163000C323DB0A45EAC121C912B6F120050DDD3D
:1016400063FA05F6EB4086EA0305124218BF45F03F
:101650000105C01851F100010CD213E062FA06F541
:10166000F2405540F3415A40B340F3405A4080188D
:10167000594107D349085FEA30005FEA350528BFC2
:1016800045F0010501F58011420875F1004250F165
:10169000000041EB04514E0016F5001F70BC38BF2E
:1016A00070470020090D090570471CEB410F10D24F
:1016B00052EA43060BD0BCEB410F05D80C0DAB43EF
:1016C000661E342EB6DD02E0AB438018594170BC73
:1016D000704770BC70470000F0B540F2FF7581EABA
:1016E000030C0CF0004C15EA11541DBF15EA1357FA
:1016F000AC42AF42E5E0BC41C1F31301C3F31303B5
:10170000801A994143F4801304D2641E00184941A1
:1017100080185941C90241EA5051B1FBF3F603FB6D
:101720001611A2FB0675D7EBC020A94102D2761E86
:1017300080185941C90241EA5051B1FBF3FE03FB45
:101740001E11A2FB0E75D7EBC020A94103D2AEF14A
:10175000010E80185941890241EA9051760546EA06
:101760008E2EB1FBF3F603FB1611A2FB0675D7EB29
:101770008020A94102D2761E80185941C90241EA4F
:1017800050514EEA060EB1FBF3F603FB1611A2FB15
:101790000675D7EBC020A94102D2761E80185941A8
:1017A000C90241EA5051B1FBF3F703FB1711A2FB49
:1017B0000735D3EBC020A94167F100070CBF0042F9
:1017C00047F0010766F3D5274FEA1E31B80814F534
:1017D000806412DDBD0775F1004250EB0E5051EBF5
:1017E000045111F5801F5CBF41EA0C01F0BD4CF0C3
:1017F0007F6141F0E0410020F0BDBD076D0840EA87
:101800000E5041F48011D4F10104B4F120060ADA3B
:10181000C4F120060200E04001FA06F3E14018435B
:10182000B24015430EE0342C13DCC6F1200445EA27
:1018300040056D0820FA06F2154321FA06F0A14092
:101840000D43002175F1004250F1000051EB0C01F5
:10185000F0BD00205FEA0C01F0BDCFB992185B41EA
:10186000B3FA83F704BFB2FA82F6BF190B3FB7F1A0
:1018700020062FBF02FA06F3BB40C7F1200622FA6A
:1018800006F638BF3343BA401CB1E419641E33E78F
:101890007F4231F00041B1FA81F404BFB0FA80F622
:1018A000A4190B3CB4F120062FBF00FA06F1A140A9
:1018B000C4F1200620FA06F638BF3143A0403C1B95
:1018C0001AE7AC421ABF05EA1357AF4212E050EADA
:1018D00041061CBF52EA4306BFE750EA41073046C3
:1018E00061461CBF41EA0551F0BD52EA430C08BFF6
:1018F000C143F0BD00204FF4001616EB410F98BF16
:1019000016EB430F08BF16EB410F24BFC14305E0A0
:1019100016EB430F0CBF61464CEA0551F0BD0000C9
:10192000400D40F21E4C40EAC120BCEB115C40F07F
:10193000004003D48CF30701C84070476FEAE170A0
:101940007047000050B1B0FA80F18840C91CC1F561
:101950008461090501EBD0214005704701467047BD
:1019600030B540F2FF7C1CEA11541DBF1CEA135530
:10197000644565453FE0641981EA030C6FF35F53EA
:101980000CF0004C43F48013C90241F0004141EADD
:10199000505EC5021100A5FB020200284FF00000B6
:1019A000EEFB01204FF00001E3FB052118BF42F0E0
:1019B0000102401800214941E3FB0E01A4F58064B7
:1019C0000D0302D292184041494154F1010470DDE7
:1019D000450872F1004250F1000051EB0451A1F5AD
:1019E000801102D441EA0C0130BD40F2FF7E4CEA86
:1019F0000E51002030BD0CEA1355644518BF6545F3
:101A000081EA030C0CF0004C41D050EA410E1CBF9F
:101A100052EA430E02E06146002030BD24422C44CD
:101A20001BD15FEA050EF6D0090302BF0146002074
:101A3000AEF1140EB1FA81F5AEEB050401FA05FE24
:101A40000C35C5F1200100FA05F5C8404EEA000E3C
:101A50006FF35F5343F480139CE733F00043B3FA12
:101A600083F504BFB2FA82FE75440B3D641BB5F1E9
:101A7000200E2FBF02FA0EF3AB40C5F1200E22FA62
:101A80000EFE38BF43EA0E03AA40641C7CE750EA0E
:101A9000410E14BF52EA430E6FF000014FF40015DF
:101AA00015EB430F8EBF194615EB410F9DE7B4D8D8
:101AB00030BDD4F10104B4F120050FDAC4F12005E2
:101AC000520828BF42F0010210FA05FE01FA05F59E
:101AD0007244E2BFE0402843E1400FE0352C9ADC3D
:101AE000C5F1200452EA400220FA05F218BF42F084
:101AF000010231FA05F0A1400A43002172F10042CF
:101B000050F1000051EB0C0130BD0000004870475F
:101B100008000020BBBBE1B1B2F5803F80F07E80C1
:101B2000022A1ED98C46B1FBF2F102FB11C31B0441
:101B300043EA1043B3FBF2FC02FB1C3380B240EAE1
:101B40000343B3FBF2F002FB103240EA0C400023E7
:101B50007047022A05D98446B0FBF2F002FB10C29E
:101B600070474AB105D100F0010249085FEA300030
:101B7000704700220023704700F0E8B80B00020015
:101B8000002100207047904271EB030CF6D3B3F5AF
:101B9000803F2FD2F0B5B3FA83F7B1FA81F4A7F101
:101BA0000F0E3D1B5340CEF1200602FA0EF2F34118
:101BB0005340B5F10F0746D80F3C2C444140C4F1C7
:101BC0002006A040F1414140B1FBF3F603FB1611A2
:101BD000A2FB0645001BA94102D2761E801859417E
:101BE00080EA010221FA0EF362FA0EF200215A4055
:101BF0003046F0BD30B4B1FBF3FC03FB1C11A2FB7B
:101C00000C45001BA94103D2ACF1010C80185941CD
:101C100030BC02460B46604600217047B2F1807F1F
:101C200065D3F0B5B2FA82F7B1FA81F4C7F10F06C5
:101C30003D1B22FA06F307F1110EF24120355A40FE
:101C4000B5F10F07B8D94140C4F12006A040F141D9
:101C50004140B1FBF3FC03FB1C11A2FB0C45001B34
:101C6000A94103D2BCF1010C801859410F2F12D3A6
:101C70000F3FC90341EA5041B1FBF3F603FB1611D4
:101C8000A2FB0645D4EBC030A94102D2761E8018D3
:101C9000594146EACC3C07B34140C7F12006B84061
:101CA000F1414140B1FBF3F603FB1611A2FB0645DF
:101CB000001BA94102D2761E8018594180EA010218
:101CC00021FA0EF3C7F1200462FA0EF20CFA07F0C3
:101CD0005A402CFA04F13043F0BD80EA010221FAA7
:101CE0000EF3002162FA0EF260465A40F0BD8C46B7
:101CF000B1FBF2F102FB11C31B0243EA1063B3FB19
:101D0000F2FC02FB1C331B024CEA002043EA106386
:101D1000B3FBF2FC02FB1C331B024CEA002043EA3B
:101D20001063B3FBF2FC02FB1C331B024CEA0020E5
:101D300043EA1063B3FBF2FC02FB1C324CEA0020C6
:101D400000237047012000F003B800007047000036
:101D500080B5AFF30080024A11001820ABBEFBE74C
:101D600026000200826832F0E07211438160704701
:101D7000806810F0E070704710B410F1600414EB4C
:101D800081042168DFF8D403014012F0F8420A43CD
:101D90001A4352F00042226010BC7047603010EBD2
:101DA0008100006810F0F8407047603010EB81004F
:101DB000016821F000410A4302607047426922F045
:101DC0000042114341617047C06810F4406F01D177
:101DD000012000E000207047C06C10F0C00F01D15E
:101DE000012000E000207047C06810F000707047CC
:101DF000C368DFF86C2313401943C160704730B4E7
:101E000014300B00DB0D13F00403181803680724CB
:101E10000D002D0D15F01F05AC40A343090D11F069
:101E20001F0112FA01F11943016030BC704710B470
:101E3000D0F8B0404B035B0B9C43DFF8283312F023
:101E40001802D34019404903490B2143C0F8B01090
:101E500010BC7047806810F01F007047806810F059
:101E6000010070478368DFF80423134011F08041BC
:101E7000194351F00041816070478068C00F70477E
:101E80008068800810F0010070478268DFF8D8127F
:101E90000A4052F00802826070478068C00810F063
:101EA000010070477CB504000D000020009094F8FC
:101EB0005000012801D102203AE0012084F85000AE
:101EC000200001F0A7F806003000C0B2002826D19B
:101ED000606D30F4885050F0020060652900206881
:101EE000FFF7C0FF2068FFF7C8FF002811D0009857
:101EF000401C00900098B0F5912FF3D3606D30F046
:101F0000020050F010006065002084F850000120AD
:101F10000EE00120616D60F30101616503E0606D19
:101F200050F010006065002084F850003000C0B20E
:101F300076BD70B50500DFF83802FFF78BFF0400AF
:101F40002868FFF7AAFF002801D002206DE028686A
:101F5000C06810F000402968C96C11F0C001084346
:101F6000002805D1686D50F02000686501205CE014
:101F700095F85000012801D1022056E0012085F893
:101F80005000280000F0DEFF06003000C0B200283C
:101F900046D1686DC00504D5A86D30F00800A8656D
:101FA00001E00020A865696DDFF8C801014051F427
:101FB00080516965DFF8C0012968814202D1DFF8EC
:101FC000BC1100E029682A68914201D0002C03D19D
:101FD000696D31F48011696560212A681160002102
:101FE00085F850102968814202D1DFF8900100E0A5
:101FF00028682968884205D0002C03D0062C01D01F
:10200000072C08D12868FFF7EFFE00280BD12868BD
:10201000FFF73BFF07E0686D50F48010686502E051
:10202000002085F850003000C0B270BD2DE9F041AD
:1020300006000C00DFF83801FFF70CFF050070699F
:10204000082801D1402700E0202701F023F880462E
:1020500030680068384217D114F1010FF8D001F050
:1020600019F8B0EB0800844201D3002CF0D130689D
:1020700000683842ECD1706D50F0040070650020AB
:1020800086F8500003204CE03068FFF7A5FE0400FE
:102090003068FFF799FEDFF8E01032688A4202D11B
:1020A000DFF8D82000E0326833689A4205D0002D6E
:1020B00003D0062D01D0072D02D13168C96807E091
:1020C00032688A4202D1DFF8B41000E03168C96892
:1020D000726D52F400527265002C05D18A0114D43D
:1020E000002812D0880410D43068006840060CD54F
:1020F00088020AD4706D30F480507065706DC00530
:1021000003D4706D50F001007065402F05D1480474
:1021100006D460203168086002E020203168086041
:102120000020BDE8F081B1F5877F0ED0B1F5057FC5
:1021300007D040F21A3291420BD10068D0F88C00DF
:102140000AE00068D0F8880006E00068D0F8840053
:1021500002E00068D0F880007047000000F0FF0344
:10216000FFFFDF7FFFFF0700C0FFFF7FC0FFFF3FD4
:1021700000030450FEDFFFFF000104500000045084
:102180002DE9FC4105000F000026002000900021F1
:1021900028690028DFF8F085F8684045FFD195F8F8
:1021A0005000012801D1022067E2012085F850008B
:1021B0002869002802D0B86901281FD1786808284A
:1021C0004CD1386A00280BD03968890C11F4F851C9
:1021D00097F8200010F03C000143786A014303E0C7
:1021E0003968890C11F4F8512868C26CDFF89C0535
:1021F00002400A432868C264E9652FE0286E00287F
:1022000012D1B86928660020E865386A002809D02C
:10221000B969491E97F8200010F03C000143786A24
:10222000014301E0B969491E3868C0F384603A7916
:1022300012F01F0290400143286E401E2866E86D90
:102240000143E965286E002808D12868C16CDFF8D1
:102250003C050140E86D01432868C1642868FFF728
:102260001CFE002818D1787F00280CD12868C0688F
:1022700030F44010B97F50EA4150397F50EA0150A4
:102280002968C86008E02868C06830F44010B97F49
:1022900050EA41502968C8602868FFF7F1FD040042
:1022A0002868FFF7FAFD0443002C40F00681386AE5
:1022B000002802D0786A002810D1787F012806D142
:1022C0002868C06850F000702968C86015E0286868
:1022D000C06830F000702968C8600EE0787F01287F
:1022E00005D1686D50F020006865012605E028687A
:1022F000C06830F000702968C86097F8280001288D
:102300000CD12868016931F4FF71F86A0143386B18
:10231000014351F002012868016105E02868006965
:1023200030F0020029680861B868B0F1004F0AD1A6
:10233000002239682868FFF762FD5FF000412868D5
:10234000FFF73CFD08E0BA6839682868FFF757FDD9
:1023500000212868FFF732FD78692968C968C1F350
:10236000C1035B0010FA03F33869042805D03A680A
:1023700039692868FFF700FD9FE000212868FFF712
:102380000DFD400306D100212868FFF707FDC0F3CB
:10239000846007E000212868FFF700FD90FAA0F0B4
:1023A000B0FA80F03968490303D13968C1F3846118
:1023B00004E0396891FAA1F1B1FA81F1884204D1BF
:1023C000002200212868FFF7F0FC01212868FFF7B0
:1023D000E5FC400306D101212868FFF7DFFCC0F3CC
:1023E000846007E001212868FFF7D8FC90FAA0F08C
:1023F000B0FA80F03968490303D13968C1F38461C8
:1024000004E0396891FAA1F1B1FA81F1884204D16E
:10241000002201212868FFF7C8FC02212868FFF785
:10242000BDFC400306D102212868FFF7B7FCC0F3CA
:10243000846007E002212868FFF7B0FC90FAA0F062
:10244000B0FA80F03968490303D13968C1F3846177
:1024500004E0396891FAA1F1B1FA81F1884204D11E
:10246000002202212868FFF7A0FC03212868FFF75B
:1024700095FC400306D103212868FFF78FFCC0F3C9
:10248000846007E003212868FFF788FC90FAA0F039
:10249000B0FA80F03968490303D13968C1F3846127
:1024A00004E0396891FAA1F1B1FA81F1884204D1CE
:1024B000002203212868FFF778FC2868FFF7CEFC8C
:1024C000002840F08E80FA6839682868FFF7AFFC72
:1024D000F868404540F085803868400303D138688B
:1024E000C0F3846004E0386890FAA0F0B0FA80F09D
:1024F000401C10F01F000A2836D23868400303D170
:102500003868C0F3846104E0386890FAA0F0B0FA4B
:1025100080F13868400303D13868C0F3846004E078
:10252000386890FAA0F0B0FA80F03A68520303D10C
:102530003A68C2F3846204E03A6892FAA2F2B2FA0C
:1025400082F2491C890611F0F8410123401C10F069
:102550001F0013FA00F00143521C12F01F02032067
:10256000424351EA025138E03868400303D13868E9
:10257000C0F3846104E0386890FAA0F0B0FA80F10A
:102580003868400303D13868C0F3846004E03868D9
:1025900090FAA0F0B0FA80F03A68520303D13A689A
:1025A000C2F3846204E03A6892FAA2F2B2FA82F2CA
:1025B000491C890611F0F8410123401C10F01F004E
:1025C00013FA00F00143521C12F01F020A3A0320D2
:1025D000424351EA025151F00071BA682868FFF78E
:1025E0000EFC38686A49084242D0654C2000FFF76B
:1025F000BFFB01003868674A90421AD1080218D41C
:1026000028685E4A904233D151F400012000FFF760
:10261000A9FB614800686149B0FBF1F1891C0C20FD
:10262000414300910098002822D00098401E00905D
:10263000F8E738685A4A90420BD1C80109D4286893
:102640004E4A904214D151F080712000FFF78AFB6E
:102650000EE03868534A90420AD1480208D42868EC
:10266000464A904204D151F480012000FFF77AFBE2
:10267000002085F850003000C0B2BDE8F6812DE999
:10268000F04399B005000F0000263868002895F83F
:102690005000012801D102206DE0012085F8500092
:1026A0000020159000201690DFF8D0802868404563
:1026B00002D13448009001E00020009000980028EA
:1026C00008D1686D50F020006865002085F8500042
:1026D000012050E00098FFF7D3FB04002868FFF7C3
:1026E000CFFB0443002C3CD1DFF8949038680028DD
:1026F00020D0D9F8081031F460417868014395F88A
:10270000300051EA4031C9F808104046FFF7A6FBF7
:1027100004001C48FFF7A2FB0443002C26D1D9F883
:1027200008102148014038680143B8680143C9F8DE
:1027300008101BE0D9F8080030F46040C9F8080020
:102740004046FFF78BFB04000E48FFF787FB04436E
:10275000002C0BD1D9F8081013480140C9F8081013
:1027600004E0686D50F0200068650126002085F8BF
:1027700050003000C0B219B0BDE8F0830000045032
:10278000000304500001045000007F400020088234
:1027900000000880000052C704000020400D030024
:1027A000000084CB01000080E0F0FFFF38B5050099
:1027B0002868FFF765FB04002868FFF76EFB0443F9
:1027C000002C06D15FF000412868FFF711FB0020C4
:1027D00000E00120C0B232BD826832F47C121143A5
:1027E00081607047826832F0E07211438160704707
:1027F000806810F0E070704710B410F1600414EBC2
:1028000081042168DFF80C03014012F0F8420A430A
:102810001A4352F00042226010BC7047603010EB47
:102820008100006810F0F8407047603010EB8100C4
:10283000016821F000410A4302607047426922F0BA
:10284000004211434161704730B410F13003080079
:10285000800910F00C00C3181C681F2511F01F0020
:102860008540AC43C2F3846011F01F0110FA01F1FE
:102870002143196030BC704730B414300B00DB0DBD
:1028800013F004031818036807240D002D0D15F02C
:102890001F05AC40A343090D11F01F0112FA01F10D
:1028A0001943016030BC704710B4D0F8B0404B03FE
:1028B0005B0B9C43DFF8603212F01802D3401940E2
:1028C0004903490B2143C0F8B01010BC704782681F
:1028D000DFF848120A40826070478068400F10F0AD
:1028E000010070478268DFF838120A4052F08052C7
:1028F000826070478068000F10F0010070478268A6
:10290000DFF81C120A4052F00102826070478268B0
:10291000DFF80C120A4052F00202826070478068B1
:1029200010F0010070478068400810F00100704707
:102930008068800810F0010070478068C00810F0BF
:10294000010070477CB50400002600200090002C98
:1029500001D10120DDE02069002802D094F8200098
:102960000128606D002807D1200000F0B0FB002096
:10297000A065002084F850002068FFF7AEFF002813
:1029800002D02068FFF7A3FF2068FFF7B3FF0028FD
:1029900013D12068FFF7A6FFDFF888010068DFF891
:1029A0008811B0FBF1F0401C4000009002E000985C
:1029B000401E009000980028F9D12068FFF79AFF88
:1029C000002808D1606D50F010006065A06D50F0D7
:1029D0000100A06501262068FFF7AAFF616DC90606
:1029E00000F19080002840F08D80606D30F48070A0
:1029F00050F0020060652068FFF791FF002810D1B9
:102A0000DFF82801FFF78BFF0500DFF82401FFF74F
:102A100086FF0543002D04D16168DFF81801FFF738
:102A2000DBFE607E616B51EA4031E0680143A068E3
:102A3000014394F8200051EA004194F82000012855
:102A400003D1606A401E51EA4041A06A002805D0C7
:102A5000A06A10F470700143E06A01432068C26804
:102A6000DFF8D400024011432068C1602068FFF7FE
:102A70005FFF05002068FFF760FF0543002D28D1A8
:102A8000207E94F83010490051EA80312068C268F5
:102A9000DFF8A800024011432068C16094F83800B4
:102AA000012810D1206801696FF38A01E06B0143AE
:102AB000206C0143606C0143A06C014351F00101A3
:102AC0002068016105E02068006940084000216835
:102AD00008612069012809D12068006B0009000104
:102AE000E169491E08432168086305E02068006B1E
:102AF00000090001216808630120616D60F3010194
:102B0000616504E0606D50F01000606501263000E2
:102B1000C0B276BD00F0FF03FFFF0700C0FFFF5FFC
:102B2000C0FFFF7F04000020400D030000000450A0
:102B3000000104500003045007C0F0FFFDBFFFFF79
:102B40002DE9FC4106000F00002500200090DFF871
:102B5000A884F8684045FFD196F85000012801D1BB
:102B60000220EDE1012086F850003068FFF7E0FE1A
:102B7000002840F0DB817868062818D2786802289F
:102B800006D012D3042809D005D3052809D00CE0BB
:102B90000C2078600BE01220786008E01820786044
:102BA00005E04FF48070786001E0062078603A68B4
:102BB00079683068FFF748FE3068FFF7B9FE040017
:102BC0003068FFF7BAFE0443002C40F0C980B868B3
:102BD000B0F1004F0AD1002239683068FFF74CFE8F
:102BE0005FF000413068FFF729FE08E0BA683968F5
:102BF0003068FFF741FE00213068FFF71FFE78695B
:102C00003168C968C1F3C1035B0010FA03F3386986
:102C1000042805D03A6839693068FFF7EDFD9FE078
:102C200000213068FFF7FAFD400306D1002130682B
:102C3000FFF7F4FDC0F3846007E000213068FFF780
:102C4000EDFD90FAA0F0B0FA80F03968490303D1A5
:102C50003968C1F3846104E0396891FAA1F1B1FAED
:102C600081F1884204D1002200213068FFF7DDFDA8
:102C700001213068FFF7D2FD400306D10121306801
:102C8000FFF7CCFDC0F3846007E001213068FFF757
:102C9000C5FD90FAA0F0B0FA80F03968490303D17D
:102CA0003968C1F3846104E0396891FAA1F1B1FA9D
:102CB00081F1884204D1002201213068FFF7B5FD7F
:102CC00002213068FFF7AAFD400306D102213068D7
:102CD000FFF7A4FDC0F3846007E002213068FFF72E
:102CE0009DFD90FAA0F0B0FA80F03968490303D155
:102CF0003968C1F3846104E0396891FAA1F1B1FA4D
:102D000081F1884204D1002202213068FFF78DFD55
:102D100003213068FFF782FD400306D103213068AC
:102D2000FFF77CFDC0F3846007E003213068FFF704
:102D300075FD90FAA0F0B0FA80F03968490303D12C
:102D40003968C1F3846104E0396891FAA1F1B1FAFC
:102D500081F1884204D1002203213068FFF765FD2C
:102D60003068FFF7DCFD002840F08E80FA68396893
:102D70003068FFF799FDF868404540F08580386875
:102D8000400303D13868C0F3846004E0386890FAE7
:102D9000A0F0B0FA80F0401C10F01F000A2836D2D4
:102DA0003868400303D13868C0F3846104E03868B0
:102DB00090FAA0F0B0FA80F13868400303D1386887
:102DC000C0F3846004E0386890FAA0F0B0FA80F0B4
:102DD0003A68520303D13A68C2F3846204E03A6865
:102DE00092FAA2F2B2FA82F2491C890611F0F84175
:102DF0000123401C10F01F0013FA00F00143521C85
:102E000012F01F020320424351EA025138E03868B1
:102E1000400303D13868C0F3846104E0386890FA55
:102E2000A0F0B0FA80F13868400303D13868C0F3ED
:102E3000846004E0386890FAA0F0B0FA80F03A6854
:102E4000520303D13A68C2F3846204E03A6892FA0A
:102E5000A2F2B2FA82F2491C890611F0F84101236C
:102E6000401C10F01F0013FA00F00143521C12F036
:102E70001F020A3A0320424351EA025151F0007105
:102E8000BA683068FFF7F8FC3868DFF8701108425C
:102E900051D0DFF85C412000FFF7AAFC0100386840
:102EA000DFF85C2190421DD108021BD43068DFF8A6
:102EB000442190423FD151F400012000FFF792FCE1
:102EC000DFF840010068DFF84011B0FBF1F1491C68
:102ED0000C2041430091009800282CD00098401EFF
:102EE0000090F8E73868DFF8242190420CD1C8013F
:102EF0000AD43068DFF8FC2090421CD151F0807178
:102F00002000FFF76FFC16E03868DFF804219042DC
:102F100011D148020FD43068DFF8D82090420AD18E
:102F200051F480012000FFF75DFC04E0706D50F06B
:102F3000200070650125002086F850002800C0B2EE
:102F4000BDE8F68138B50400002000902068FFF746
:102F5000E6FC002849D1206880686FF39E100028A5
:102F600009D0606D50F010006065A06D50F0010058
:102F7000A06501203AE02068FFF7C1FC1C48FFF77C
:102F800037FC00020FD51F4800681F49B0FBF1F164
:102F9000491C0C204143009102E00098401E009023
:102FA00000980028F9D100F075F805002068006845
:102FB000C0071AD42068FFF7B2FC002802D12068AD
:102FC000FFF79DFC00F066F8401B0328EED3206855
:102FD0000068C007EAD4606D50F010006065A06D15
:102FE00050F00100A065012000E0002032BD00008B
:102FF000000304500000045000007F4000000880DF
:10300000000052C704000020400D0300000084CBE4
:103010000100008038B505002868FFF784FC040033
:103020002868FFF77CFC002831D0002C2FD12868BD
:10303000806810F00D0001281FD12868FFF767FC99
:1030400003202968086000F025F8040028688068DB
:10305000C0071CD500F01EF8001B0328F6D3286813
:103060008068C007F2D5686D50F010006865A86DE3
:1030700050F00100A86501200AE0686D50F01000D2
:103080006865A86D50F00100A865012000E00020EF
:1030900032BD000001480068704700BFAC0100204D
:1030A00081B05248016851F001010160006810F0E0
:1030B0000100009000984E48016851F08051016075
:1030C000006810F080500090009801B0704710B573
:1030D00086B004001422002101A800F093F82068B3
:1030E000444988421DD14448016851F400510160AF
:1030F000016811F4005100910099016851F001013B
:103100000160006810F001000090009838200190E4
:103110000B2002900020039001A95FF0904000F086
:103120007BF806B010BD81B000683449884209D1EF
:103130002F48016851F010010160006810F0100084
:103140000090009801B0704718B593B004001422A5
:103150000021684600F056F83422002106A800F04D
:1031600051F82068264988423DD10220069000206F
:10317000089006A800F02AF9002801D000F05AFCB7
:103180001B48016851F400310160006810F4003000
:10319000059005981848016851F001010160006828
:1031A00010F0010005900598042000900220019085
:1031B00000200290032003900720049069465FF0EE
:1031C000904000F029F84FF4004000900220019058
:1031D00000200290032003900320049069465FF0D2
:1031E000904000F019F814B010BD000060100240CB
:1031F00058100240000004504C10024000100040E3
:103200000044004010B5044610460A4601462046D8
:1032100000F012FC204610BDF8B40200002430E09B
:10322000072603E0604EB242FAD10326A70017F04A
:103230000C07BE4035432600B60843F826505B4DC8
:103240002B6883434E68F60200D503432B60584D2C
:103250002B6883434E68B60200D503432B60554D5F
:103260002B6883434E68B60300D503432B60524D51
:103270002B6883434E68F60301D5184303002B6087
:10328000641C0868E040002800F08380012608687C
:1032900016FA04F318400028F2D00B7913F0030358
:1032A000012B04D00B7913F00303022B12D1956884
:1032B000032763009F40BD43CF6863009F403D43A9
:1032C00095605368A640B3434D68C5F30015A5400B
:1032D0002B4353600B7913F00303032B09D0D568FC
:1032E000032663009E40B5438E6863009E403543CD
:1032F000D5600B7913F00303022B15D12300DB08F3
:1033000002EB83031B6A0F25A60016F01C06B540CE
:10331000AB430D69A60016F01C06B5402B432500F3
:10332000ED0802EB85052B621568032663009E40BD
:10333000B5430E7916F0030663009E4035431560D1
:103340004B6813F4403F9BD01C4B1D6855F00105A2
:103350001D601B6813F001030093009B184B2500B0
:10336000AD0853F825500F26A70017F00C07BE40F4
:10337000B543B2F1904F01D1002657E7114EB2424A
:1033800001D1012652E7104EB2427FF44BAF022624
:103390004CE7F1BC7047D2B2002A02D089B28161F9
:1033A00001E089B281627047000C004808040140C6
:1033B0000C0401400404014000040140601002407C
:1033C0000800014000040048000800482DE9FC47BF
:1033D0000400002700252068800373D55FF00008F3
:1033E000DFF810623068C0000AD4306850F08050B6
:1033F0003060306810F08050009000985FF0010855
:10340000DFF8F491D9F8000050F48070C9F800009A
:10341000FFF740FE8246D9F80000C00506D4FFF74A
:1034200039FEB0EB0A000328F5D303273800C0B2F9
:1034300000283DD1DFF8C491D9F8000010F44070A5
:10344000002814D0216B884211D0D9F8000030F444
:103450004070D9F8001051F48031C9F80010D9F843
:10346000001031F48031C9F80010C9F80000C0071D
:103470000FD5FFF70FFE8246D9F80000800708D469
:10348000FFF708FEB0EB0A0041F289318842F3D31E
:1034900003273800C0B2002808D1D9F8001031F451
:1034A0004071206B0143C9F8001002E03D0000E0CC
:1034B0003D005FFA88F8B8F1010F03D1306830F0B1
:1034C000805030602078C00707D5DFF834110A68D3
:1034D00092089200606802430A602078800707D54E
:1034E000DFF81C110A6832F00C02A06802430A607F
:1034F0002078400707D5DFF808110A6832F030025B
:10350000E06802430A602078800607D5DFF8F010F3
:103510000A6832F44062206902430A60206880052C
:1035200007D5DFF8DC100A6832F44022206A024333
:103530000A602068400507D5DFF8C4100A6832F435
:103540004012606A02430A602078400607D5DFF81F
:10355000B0100A6832F44052606902430A60207871
:10356000000607D5DFF898100A6832F44042A069D7
:1035700002430A602068C00507D5DFF884100A6896
:1035800032F44032E06902430A602068800411D5B9
:10359000DFF86C100A6832F04062A06A02430A60E9
:1035A000A06AB0F1006F05D1DFF85800016851F44E
:1035B000801101602068400311D5DFF844100A68CB
:1035C00032F04062E06A02430A60E06AB0F1006FE4
:1035D00005D1DFF83000016851F480110160280046
:1035E000C0B2BDE8F6870848016851F004010160E7
:1035F00070470000581002400070004090100240D8
:10360000881002400C10024000100240F8B500F093
:1036100047FA00F06DF800F0A0F900F080F900F032
:10362000B7F800F054F9DFF8BC437F212000FEF723
:1036300039FCDFF8B453280000F081FADFF8AC63FE
:10364000012210213000FFF7A6FE2000FEF771FCDA
:1036500000202968486201212000FEF7E7FCDFF81E
:10366000907308212000FEF75EFD38604FF48771EB
:103670002000FEF758FDDF4908604FF40571200077
:10368000FEF751FDDC4908603868FEF75BF941EC54
:10369000100BDA48016840F2FF5291420BD20168E8
:1036A000491C016053EC102BD549D64800F0BCFAF8
:1036B000D549086009E00021016053EC102BD34983
:1036C000D04800F0B1FAD04908600123CE48006824
:1036D000020092B2CB49CE4800F003FB0022102139
:1036E0003000FFF758FE2868406A0A28A6D2FAE799
:1036F00010B596B04421002205AC200000F09CF9E2
:10370000142100226C46200000F096F94FF400705E
:1037100000F0C0FD002801D000F08CF900F0FAFDA7
:10372000BC48016831F018010160142005900120A7
:10373000079001200C9000200D9060200E90022038
:103740001090012011900120129028201390022047
:1037500014900220159005A800F0E4FD002801D087
:1037600000F068F90F2000900320019000200290E3
:1037700000200390002004900421684601F016F90F
:10378000002801D000F056F9FFF72DFF16B010BD4C
:1037900038B596B00C21002213AC200000F04CF993
:1037A000182100220DAC200000F046F9342100223F
:1037B0006C46200000F040F98A4C974820600020B9
:1037C00060600020A0600020E060012020610420F3
:1037D000606100202076012060760120E0610020F9
:1037E00084F820000020A0620020E062002084F81D
:1037F000300000206063002084F838002000FFF7CC
:10380000A1F8002801D000F015F90020139013A9A9
:103810002000FEF734FF002801D000F00BF9200053
:10382000FEF7C4FF7D4D0D9506200E9000200F90F1
:103830007F20109004201190002012900DA92000EC
:10384000FFF77EF9002801D000F0F4F80095082079
:103850000190002002907F2003900420049000201B
:1038600005900320069000208DF81C0000208DF8A4
:103870001D0000208DF81E000020089000200990F7
:1038800000208DF8280069462000FEF779FC00280A
:1038900001D000F0CFF8624800904FF4877001909B
:1038A00069462000FEF76CFC002801D000F0C2F849
:1038B0005C4800904FF40570019069462000FEF7C7
:1038C0005FFC002801D000F0B5F817B030BD1FB57F
:1038D0000C2100226C46200000F0AEF8424C524809
:1038E000206041F63F7060600020A0604FF6FF70DE
:1038F000E0600020A061200000F0E4F8002801D082
:1039000000F098F800200090002002906946200006
:1039100001F0D6F9002801D000F08CF81FBD80B569
:103920003B48424901605FF4E11141600021816040
:103930000021C160002101610C21416100218161F0
:103940000021C161002101620021416200F08CF977
:10395000002801D000F06EF801BD10B586B014212A
:10396000002201AC200000F067F83148016851F0F6
:1039700004010160016811F00401009100990168DF
:1039800051F001010160016811F0010100910099FD
:10399000016851F002010160006810F0020000901F
:1039A0000098124C002218212000FFF7F4FC082098
:1039B000019001200290002003900020049001A9B2
:1039C0002000FFF729FC1020019001200290022026
:1039D00003900320049001A92000FFF71DFC06B00E
:1039E00010BD0000C80000202C0100200004004889
:1039F0009C010020A0010020A401002098010020CB
:103A00006450000878010020A80100206C500008D4
:103A1000440000209010024000000450000180216A
:103A20000002B0250004002A0010004000440040BD
:103A30004C10024072B6FEE762F30F2262F31F429F
:103A4000401810F0030308D0C91A1FD3DB0748BF82
:103A500000F8012D28BF20F8022D130030B41446C1
:103A60001546103928BF20E93C00FAD8490728BF7D
:103A700020E90C0048BF40F8042D890028BF20F839
:103A8000022D48BF00F8012D30BC7047C91818BF7F
:103A900000F8012DCB0728BF00F8012D704700006A
:103AA00010B50024032001F0A2F9002001F0C6F9AE
:103AB000002801D0012401E0FFF7F2FA2000C0B293
:103AC00010BD000010B50400002C01D1012035E02C
:103AD00094F83D00002805D1002084F83C00200027
:103AE000FFF721FB022084F83D00211D206800F033
:103AF0005DF8012084F84800012084F83E00012090
:103B000084F83F00012084F84000012084F841003F
:103B1000012084F84200012084F84300012084F849
:103B20004400012084F84500012084F8460001206B
:103B300084F84700012084F83D00002010BD90F873
:103B40003D10012901D0012028E0022180F83D101C
:103B50000168DFF84C20914208D00168B1F1804F34
:103B600004D00168DFF83C20914210D101688A68D6
:103B7000DFF834100A40062A0FD0B2F5803F0CD08F
:103B80000168096851F001010068016005E0016801
:103B9000096851F0010100680160002070470000D1
:103BA000002C0140004001400700010010B40368F0
:103BB000DFF86840A04202D0B0F1804F03D133F06B
:103BC00070034A681343A0420AD0B0F1804F07D077
:103BD000DFF84C20904203D0DFF84820904203D118
:103BE00033F44073CA68134333F080034A691343C4
:103BF00003608A68C2620A688262A04207D0DFF866
:103C00002020904203D0DFF81C20904201D10969A6
:103C100001630121416110BC70470000002C01408C
:103C200000400140004401400CB430B583B00A4666
:103C300006A90291044600250194009502AB01A952
:103C4000084878441E30FCF7A4FA019A1570002841
:103C50004EBF04460198041B204603B030BC5DF8FB
:103C60000CFB00BF33D4FFFF10B50400002C01D1C2
:103C7000012035E0A0690028FFD1A06F002805D100
:103C8000002084F874002000FFF75EFA2420A0676B
:103C9000206800684008400021680860200000F0AB
:103CA00088F8012801D101201AE0606A002802D0BA
:103CB000200000F0D5F92068406830F49040216879
:103CC00048602068806830F02A0021688860206899
:103CD000006850F0010021680860200000F02DFA13
:103CE00010BD2DE9FC4106000D0014001F00B06F4F
:103CF00020285BD1002D03D0200080B2002801D104
:103D0000012054E096F87400012801D102204EE011
:103D1000012086F874000020C6F880002120B067DA
:103D2000FFF7B8F98046A6F85040A6F85240B068B0
:103D3000B0F5805F04D13069002801D1002401E092
:103D40002C000025002086F8740011E020783168EE
:103D50000885641C07E0002CF8D12888C005C00D38
:103D600031680885AD1CB6F85200401EA6F8520016
:103D7000B6F8520000280AD000974346002280215E
:103D8000300000F011FA0028E5D003200FE0009782
:103D9000434600224021300000F006FA002801D0FE
:103DA000032004E02020B067002000E00220BDE8EE
:103DB000F68138B504000025A14920688842FFD06B
:103DC000A2682069024360690243E06902432068F7
:103DD00003689C4803401A432068026020684268D8
:103DE00032F44052E068024320684260A2692068D1
:103DF000884201D0206A02432068806830F4306035
:103E000002432068826020688F4A904215D18F4813
:103E1000006810F00300002805D0022805D006D362
:103E2000032806D007E001205BE0022059E00420CF
:103E300057E0082055E0102053E02068844A904263
:103E400016D18248006810F00C00002806D0042823
:103E500008D0082804D00C2806D007E0002040E055
:103E600002203EE004203CE008203AE0102038E048
:103E70002068784A904216D17448006810F03000EB
:103E8000002806D0102808D0202804D0302806D0DA
:103E900007E0002025E0022023E0042021E00820A4
:103EA0001FE010201DE02068884219D16748006893
:103EB00010F44060002809D0B0F5806F0AD0B0F54A
:103EC000006F05D0B0F5406F06D007E0002008E095
:103ED000022006E0042004E0082002E0102000E0B8
:103EE000102022688A423CD1C0B2002806D00228A5
:103EF00007D0042807D0082808D00AE000F062FEA6
:103F000009E0554807E000F00DFE04E04FF40040E2
:103F100001E000200125002800F08B806268032169
:103F20004A43904203D361680903814201D20125CB
:103F30007FE00021090241EA106100026268520834
:103F400000238018594162680023FDF7E3FDB0F5B6
:103F50004071424A914202D22168C86069E001255D
:103F600067E0E169B1F5004F34D1C0B2002808D054
:103F7000012809D002280AD004280AD008280BD02A
:103F80000DE000F01FFE0CE000F029FE09E03248D1
:103F900007E000F0C7FD04E04FF4004001E000201E
:103FA0000125002845D06168490811EB400160688F
:103FB000B1FBF0F04FF6F071B0F110028A4207D277
:103FC0000140C0F34200014389B22068C16030E083
:103FD00001252EE0C0B2002808D0012809D002280F
:103FE0000AD004280AD008280BD00DE000F0EAFD22
:103FF0000CE000F0F4FD09E0174807E000F092FD46
:1040000004E04FF4004001E000200125002810D01A
:10401000616810EB51006168B0FBF1F0B0F1100184
:104020004FF6F072914203D280B22168C86000E07E
:104030000125002060660020A0662800C0B232BDC5
:1040400000800040F369FFEF003801408810024013
:1040500000440040004800400024F40000FD0F0030
:1040600090F82410C90707D501684A6832F4003275
:10407000816A0A4301684A6090F82410890707D5CD
:1040800001684A6832F48032C16A0A4301684A60B2
:1040900090F82410490707D501684A6832F4802255
:1040A000016B0A4301684A6090F82410090707D59C
:1040B00001684A6832F40042416B0A4301684A6071
:1040C00090F82410C90607D501688A6832F4805236
:1040D000816B0A4301688A6090F82410890607D52D
:1040E00001688A6832F40052C16B0A4301688A6031
:1040F00090F82410490613D501684A6832F48012FA
:10410000016C0A4301684A60016CB1F5801F07D158
:1041100001684A6832F4C002416C0A4301684A608F
:1041200090F82410090607D501684A6832F4002285
:10413000816C0A4300684260704738B50400002073
:10414000C4F88000FEF7A6FF05002068006800079D
:104150000DD57FF07E4000902B0000225FF400110F
:10416000200000F021F8002801D003201BE0206887
:10417000006840070DD57FF07E4000902B000022A4
:104180005FF48001200000F00FF8002801D0032028
:1041900009E02020A0672020E067002020660020A2
:1041A00084F87400002032BD2DE9F04105000E00B6
:1041B00090461F00069C2868C0693040B04201D17B
:1041C000012000E000204146C9B2884258D114F1D4
:1041D000010FF0D0FEF75EFFC01B844201D3002C1C
:1041E0001FD1286850E8001F31F4D0712A6842E8D6
:1041F00000100028F5D12868083050E8001F490851
:104200004900286810F1080242E800100028F2D1A5
:104210002020A8672020E867002085F8740003208C
:104220002FE0286800684007C5D52868C0690005E8
:10423000C1D54FF4006029680862286850E8001F63
:1042400031F4D0712A6842E800100028F5D12868BE
:10425000083050E8001F49084900286810F108029A
:1042600042E800100028F2D12020A8672020E8674B
:104270002020C5F88000002085F87400032000E0AD
:104280000020BDE8F0810000DFF87800006810F43D
:10429000C0607047B0F5007F24D1DFF86800016886
:1042A00011F4C061B1F5007F29D00121026861F3EA
:1042B0004A220260DFF85000016832204143DFF8F3
:1042C0004C00B1FBF0F0401C00E0401EDFF8401055
:1042D0000A68520501D50028F7D1086840050ED5B7
:1042E00003200DE0DFF81C00016811F4C061B1F596
:1042F000806F04D00221026861F34A22026000202C
:1043000070470000007000400400002040420F0091
:10431000147000400248016851F4807101607047D8
:10432000007000402DE9FC470500002D01D101205F
:1043300038E3DFF8C888D8F8004014F00C04DFF840
:10434000C868376817F003072878C00640F1AC80CA
:10435000002C03D00C2C76D1012F74D1DFF8989863
:10436000D9F80000800704D5E869002801D10120B0
:1043700018E3D9F80000000704D5D9F8000010F0C0
:10438000F00005E0DFF800090068000910F0F00017
:10439000696A884237D2686A00F038FC002801D088
:1043A0000120FFE2D9F8000050F00800C9F8000031
:1043B000D9F8001031F0F001686A0143C9F8001023
:1043C000DFF8C808016831F47F412A6A51EA022106
:1043D000016000F0A7FBDFF8B818D8F80020C2F39E
:1043E0000312895C11F01F01C840DFF8141808603F
:1043F000DFF81008006800F021FD0100C9B20029B3
:1044000052D0C0B2CEE2D9F8000050F00800C9F88E
:104410000000D9F8001031F0F001686A0143C9F8D2
:104420000010DFF86808016831F47F412A6A51EA18
:1044300002210160002CCCD1686A00F0E7FB002863
:10444000C7D00120AEE2E869002840D0DFF8A88795
:10445000D8F8000050F00100C8F80000FEF71AFE7E
:104460008146D8F80000800707D4FEF713FEB0EBB2
:1044700009000328F5D3032094E2D8F8000050F097
:104480000800C8F80000D8F8001031F0F001686AA0
:104490000143C8F80010DFF8F407016831F47F41E8
:1044A0002A6A51EA022101602878C0076DD5082CDC
:1044B00003D00C2C22D1032F20D1DFF83C07006859
:1044C000800362D5686800285FD101206AE2DFF8C6
:1044D0002887D8F8000040084000C8F80000FEF720
:1044E000D9FD8146D8F800008007DDD5FEF7D2FD62
:1044F000B0EB09000328F5D3032053E26868B0F558
:10450000803F06D1DFF8F006016851F48031016088
:1045100018E06868B0F5A02F0AD1DFF8DC06016862
:1045200051F480210160016851F48031016009E09B
:10453000DFF8C406016831F480310160016831F4AC
:1045400080210160686800280FD0FEF7A3FD804637
:10455000DFF8A4060068800317D4FEF79BFDB0EBDC
:1045600008006528F4D303201CE2FEF793FD804683
:10457000DFF884060068800307D5FEF78BFDB0EBFB
:1045800008006528F4D303200CE22878800718D5AA
:10459000042C03D00C2C29D1022F27D1DFF8580688
:1045A0000068400504D5E868002801D10120F9E140
:1045B000DFF8D806016831F0FE412A6951EA02614C
:1045C00001602878000740F18C806869002872D06B
:1045D000DFF8B4763868A96910F01002914258D01B
:1045E00010F0030102293AD10120DBE1E86800283C
:1045F0001FD0DFF80486D8F8000050F48070C8F8A7
:104600000000FEF747FD0700D8F80000400506D47B
:10461000FEF740FDC01B0328F6D30320C2E1DFF8FC
:104620006C06016831F0FE412A6951EA02610160BD
:10463000C7E7DFF8C485D8F8000030F48070C8F808
:104640000000FEF727FD0700D8F800004005B8D5A8
:10465000FEF720FDC01B0328F6D30320A2E1C0070C
:1046600011D53868400840003860FEF713FD8046D9
:104670003868800707D5FEF70DFDB0EB080012285B
:10468000F6D303208EE1396831F01001A8690143A7
:104690003960386850F001003860FEF7FBFC804656
:1046A000386880071DD4FEF7F5FCB0EB080012282F
:1046B000F6D3032076E1DFF8D085D8F80000400873
:1046C0004000C8F80000FEF7E5FC0700D8F800003D
:1046D000800706D5FEF7DEFCC01B1228F6D30320A8
:1046E00060E12878400740F187805FF00008DFF83C
:1046F000A4753868C0000AD4386850F0805038601B
:10470000386810F08050009000985FF00108DFF8E2
:104710008895D9F80000C00514D4D9F8000050F4E9
:104720008070C9F80000FEF7B5FC8246D9F8000099
:10473000C00507D4FEF7AEFCB0EB0A000328F5D3A2
:1047400003202FE1287AC00718D5DFF85005A968A3
:10475000C909026861F3C7120260297A490708D5BE
:10476000016851F004010160016851F0010101602C
:104770000EE0016851F00101016009E0DFF81C055D
:104780000168490849000160016831F004010160D5
:10479000A868002811D0FEF77DFC8146DFF8FC04F4
:1047A000006880071FD4FEF775FCB0EB090041F2EA
:1047B00089318842F2D30320F4E0FEF76BFC814696
:1047C000DFF8D8040168890709D5FEF763FCB0EB70
:1047D000090041F289318842F2D30320E2E0016806
:1047E00031F0800101605FFA88F8B8F1010F03D160
:1047F000386830F080503860287880062ED5A86A56
:10480000002815D0DFF89884D8F8000050F0010097
:10481000C8F80000FEF73EFC0700D8F8000080074B
:104820001CD4FEF737FCC01B0328F6D30320B9E0E5
:10483000DFF86C84D8F8000040084000C8F8000099
:10484000FEF728FC0700D8F80000800706D5FEF721
:1048500021FCC01B0328F6D30320A3E0E86A00284C
:1048600000F09F80E86A022840F08180306810F0F4
:1048700003012A6B91421CD110F070016A6B521E29
:10488000B1EB021F15D110F4FE41AA6BB1EB022F60
:104890000FD110F4C001EA6B5208521EB1EB425F17
:1048A00007D110F0C060296C4908491EB0EB416F78
:1048B00043D00C2C3FD0DFF84043206830F08070AC
:1048C0002060FEF7E7FB07002068800106D5FEF7B1
:1048D000E1FBC01B0328F7D3032063E03168DFF856
:1048E000C4030140286B0143686B401E51EA00116C
:1048F000A86B51EA0021E86B4008401E51EA405184
:10490000286C4008401E51EA40613160206850F038
:1049100080702060306850F080703060FEF7BAFB25
:104920000500206880013CD4FEF7B4FB401B03283F
:10493000F7D3032036E0012034E0DFF8BC422068E2
:1049400080012ED4206850F080702060306850F0D4
:1049500080703060FEF79EFB05002068800120D447
:10496000FEF798FB401B0328F7D303201AE00C2C1A
:104970001AD0DFF88452286830F080702860FEF783
:1049800089FB04002868800106D5FEF783FB001B25
:104990000328F7D3032005E03168DFF80C0301405A
:1049A00031600020BDE8F6870120FBE72DE9F041EA
:1049B00004000E00002C01D10120B1E0DFF8EC5220
:1049C000286810F00700B0420BD22868C008C00069
:1049D00030432860286810F00700B04201D0012061
:1049E0009EE0207880070DD5DFF81012086810F0DF
:1049F000F000A268904205D20A6832F0F002A06886
:104A000002430A602078C00740D56068032806D1B9
:104A1000DFF8E401006880011CD4012080E06068B8
:104A2000022806D1DFF8D0010068800312D40120EB
:104A300076E06068002806D1DFF8BC0100688007D6
:104A400008D401206CE0DFF8B0010068400501D413
:104A5000012065E0DFF8A471396889088900606881
:104A600001433960FEF716FB8046386810F00C00F1
:104A70006168B0EB810F09D0FEF70CFBB0EB0800CA
:104A800041F289318842F0D3032049E02078800741
:104A90000DD5DFF86811A0680A6812F0F0029042A4
:104AA00005D20A6832F0F002A06802430A60286862
:104AB00010F0070086420BD22868C008C0003043BF
:104AC0002860286810F00700B04201D0012027E0DC
:104AD0002078400706D549490A6832F4E062E06868
:104AE00002430A602078000707D54448016831F482
:104AF0006051226951EAC201016000F013F8DFF849
:104B000090113E4A1268C2F30312895C11F01F0132
:104B1000C8403B4908603B48006800F08FF9C0B2CC
:104B2000BDE8F08110B4002300213448006810F083
:104B30000C00354A146814F00304002803D00C2834
:104B400014D1012C12D12C4B1C68240704D44E4BD9
:104B50001B68C3F3032302E01B68C3F30313544C25
:104B600054F82330002808D1190006E0042801D1A8
:104B7000504902E0082800D14F490C281CD1106888
:104B800010F00300022802D0032802D003E0494BB2
:104B900001E0494BFFE71068C0F30211491C10689F
:104BA000C0F306204343B3FBF1F01168C1F3416148
:104BB000491C4900B0FBF1F1080010BC70471048D7
:104BC0000068704780B5FFF7FAFF3C490B4A12684E
:104BD000C2F30222895C11F01F01C84002BD80B5FA
:104BE000FFF7EDFF3549054A1268C2F3C222895C1E
:104BF00011F01F01C84002BD001002400810024021
:104C000004000020000000200C1002407CB50500CC
:104C10000024204E3068C00002D5FFF735FB0EE0BF
:104C2000306850F080503060306810F08050009054
:104C30000098FFF729FB316831F080513160B0F501
:104C4000007F07D1812D10D3A12D01D302240CE0C8
:104C500001240AE0812D01D3032406E0802D01D137
:104C6000022402E0702D00D1012410480168C90817
:104C7000C90021430160006810F00700A04201D084
:104C8000012000E0002076BD941002400410024094
:104C9000345000085810024000700040901002404C
:104CA000981002408C809FF9FCFFEFFE002002402C
:104CB000144F00080024F40000127A007450000819
:104CC00030B490F83C20012A01D102202FE00122CB
:104CD00080F83C20022280F83D2002685468026877
:104CE0009368144D0268AA4203D134F470044A68F0
:104CF000144334F070040A68144302685460026874
:104D0000AA4207D00268B2F1804F03D002680A4C71
:104D1000A24205D133F0800389680B4301688B60A0
:104D2000012180F83D10002180F83C10002030BCAB
:104D300070470000002C01400040014010F00700C7
:104D4000374B1A684FF6FF010A4052EA00223548F5
:104D500002431A60704732480068C0F3022070476F
:104D6000020052B2002A04D409012F4A40B2115461
:104D700007E009012D4A40B210F00F00104400F87E
:104D8000041C704710B410F00700D0F10703052B86
:104D900001D3042301E0D0F10703041D072C01D245
:104DA000002000E0C01E012414FA03F35B1E19402A
:104DB000814014FA00F0401E1040084310BC7047B8
:104DC00080B5411EB1F1807F01D301200EE0401E6D
:104DD000174908600F215FF0FF30FFF7C1FF002087
:104DE00014490860072014490860002002BD80B5FE
:104DF000FFF7A4FF01BD70B504000D0016000020F0
:104E0000FFF7A9FF32002900FFF7BCFF01002000D7
:104E100040B2FFF7A5FF70BD80B5FFF7D1FF02BD1F
:104E20000CED00E00000FA0500E400E018ED00E001
:104E300014E000E018E000E010E000E038B5040005
:104E400000251249087800281BD04FF47A700978A1
:104E5000B0FBF1F00E490968B1FBF0F0FFF7DCFFA1
:104E600000280CD1102C08D2002221005FF0FF3066
:104E7000FFF7C1FF0748046004E0012502E00125B7
:104E800000E001252800C0B232BD00BF4000002074
:104E900004000020000000201000000000093D0078
:104EA0001612000816120008161200081612000842
:104EB000161200081612000816120008FFFFFFFF66
:104EC000FFFFFFFF16110008161200081612000857
:104ED000FFFFFFFFFFFF00000100000030B40025CE
:104EE00012E050F8042BD30744BF4A44521E091F56
:104EF000042942F8045BFAD213468C0744BF15809C
:104F00009B1CC90748BF1D7050F8041B0029E8D13D
:104F100030BC7047A0860100400D0300801A0600D7
:104F200000350C0040420F0080841E0000093D0047
:104F300000127A000024F40000366E010048E801F7
:104F4000006CDC0210B5074979441831064C7C44EA
:104F5000163404E00A68081D114488470146A1423E
:104F6000F8D110BD2C0000004C0000004EF6885116
:104F7000CEF20001086840F470000860BFF34F8F64
:104F8000BFF36F8F4FF00170E1EE100A7047000021
:104F90004DFFFFFF700100004400002000000000F2
:104FA000B7C0FFFF44000000F0FEFFFF000000203C
:104FB0000000000000F00DF8002801D0FFF7C2FF4C
:104FC000AFF300800020AFF30080FEF71FFB00F07E
:104FD00002F80120704700F001B80000074638468B
:104FE000FCF7B6FEFBE700000548014603B468463F
:104FF00080F30988AFF30080FFF7B8FFFFF7DAFF0F
:10500000A5EDF5FE03480168034A1278891801608E
:10501000704700BFAC01002040000020FEE7FEE723
:10502000FEE7FEE7FEE770477047704780B5FFF781
:10503000E9FF01BD000000000000000001020304C0
:1050400006070809014880470148004755500008F5
:10505000E94F00080248016851F47001016070478F
:1050600088ED00E0252E346620000000252E3466F1
:105070000A0000000000000001020304FFF7FEBF69
:10508000FFF7FEBFFFF7FEBFFFF7FEBFFFF7FEBF54
:10509000FFF7FEBFFFF7FEBFFFF7FEBFFFF7FEBF44
:1050A000FFF7FEBFFFF7FEBFFFF7FEBFFFF7FEBF34
:1050B000FFF7FEBFFFF7FEBFFFF7FEBFFFF7FEBF24
:1050C000FFF7FEBFFFF7FEBFFFF7FEBFFFF7FEBF14
:1050D000FFF7FEBFFFF7FEBFFFF7FEBFFFF7FEBF04
:1050E000FFF7FEBFFFF7FEBFFFF7FEBFFFF7FEBFF4
:1050F000FFF7FEBFFFF7FEBFFFF7FEBFFFF7FEBFE4
:10510000FFF7FEBFFFF7FEBFFFF7FEBFFFF7FEBFD3
:10511000FFF7FEBFFFF7FEBFFFF7FEBFFFF7FEBFC3
:10512000FFF7FEBFFFF7FEBFFFF7FEBFFFF7FEBFB3
:10513000FFF7FEBFFFF7FEBFFFF7FEBFFFF7FEBFA3
:10514000FFF7FEBFFFF7FEBFFFF7FEBFFFF7FEBF93
:0C515000FFF7FEBFFFF7FEBFFFF7FEBF3A
:0400000508004FE9B7
:00000001FF
