:020000040800F2
:10000000980400203D1D0008151D0008171D00085C
:10001000191D00081B1D00081D1D00080000000020
:100020000000000000000000000000001F1D00088C
:10003000211D000800000000231D0008251D0008E8
:10004000711D0008751D0008791D00087D1D000840
:10005000811D0008851D0008891D00088D1D0008F0
:10006000911D0008951D0008991D00089D1D0008A0
:10007000A11D0008A51D0008A91D0008AD1D000850
:10008000B11D0008B51D0008B91D000800000000E2
:10009000000000000000000000000000BD1D00087E
:1000A000C11D0008C51D0008C91D0008CD1D0008A0
:1000B000D11D00080000000000000000D51D000850
:1000C000D91D0008DD1D0008E11D0008E51D000820
:1000D000E91D0008ED1D0008F11D0008F51D0008D0
:1000E000F91D0008FD1D00080000000000000000D0
:1000F0000000000000000000000000000000000000
:1001000000000000000000000000000000000000EF
:100110000000000000000000011E000800000000B8
:10012000051E0008091E00080D1E0008111E00080B
:10013000151E000800000000000000000000000084
:10014000191E00081D1E0008211E0008251E00089B
:10015000291E00082D1E0008311E0008351E00084B
:10016000391E00083D1E00080000000000000000CD
:1001700000000000411E0008000000000000000018
:10018000451E0008491E00084D1E00082DE9FC47C9
:100190000500002D01D1012038E3DFF8C888D8F828
:1001A000004014F00C04DFF8C868376817F0030744
:1001B0002878C00640F1AC80002C03D00C2C76D1FE
:1001C000012F74D1DFF89898D9F80000800704D582
:1001D000E869002801D1012018E3D9F800000007E0
:1001E00004D5D9F8000010F0F00005E0DFF80009B0
:1001F0000068000910F0F000696A884237D2686A26
:1002000000F038FC002801D00120FFE2D9F80000FE
:1002100050F00800C9F80000D9F8001031F0F001E2
:10022000686A0143C9F80010DFF8C808016831F4B2
:100230007F412A6A51EA0221016000F0A7FBDFF842
:10024000B818D8F80020C2F30312895C11F01F011E
:10025000C840DFF814180860DFF81008006800F0E4
:1002600063FC0100C9B2002952D0C0B2CEE2D9F875
:10027000000050F00800C9F80000D9F8001031F073
:10028000F001686A0143C9F80010DFF868080168E6
:1002900031F47F412A6A51EA02210160002CCCD15D
:1002A000686A00F0E7FB0028C7D00120AEE2E869E9
:1002B000002840D0DFF8A887D8F8000050F00100EF
:1002C000C8F8000000F05EFC8146D8F80000800706
:1002D00007D400F057FCB0EB09000328F5D3032046
:1002E00094E2D8F8000050F00800C8F80000D8F8F0
:1002F000001031F0F001686A0143C8F80010DFF81F
:10030000F407016831F47F412A6A51EA0221016051
:100310002878C0076DD5082C03D00C2C22D1032FD0
:1003200020D1DFF83C070068800362D568680028A8
:100330005FD101206AE2DFF82887D8F80000400882
:100340004000C8F8000000F01DFC8146D8F800000D
:100350008007DDD500F016FCB0EB09000328F5D3CB
:10036000032053E26868B0F5803F06D1DFF8F0065D
:10037000016851F48031016018E06868B0F5A02F81
:100380000AD1DFF8DC06016851F4802101600168C0
:1003900051F48031016009E0DFF8C406016831F4EE
:1003A00080310160016831F48021016068680028B3
:1003B0000FD000F0E7FB8046DFF8A406006880035A
:1003C00017D400F0DFFBB0EB08006528F4D303205E
:1003D0001CE200F0D7FB8046DFF88406006880034B
:1003E00007D500F0CFFBB0EB08006528F4D303205D
:1003F0000CE22878800718D5042C03D00C2C29D1C6
:10040000022F27D1DFF858060068400504D5E868B8
:10041000002801D10120F9E1DFF8D806016831F0A8
:10042000FE412A6951EA026101602878000740F123
:100430008C806869002872D0DFF8B4763868A969C2
:1004400010F01002914258D010F0030102293AD165
:100450000120DBE1E86800281FD0DFF80486D8F827
:10046000000050F48070C8F8000000F08BFB07001B
:10047000D8F80000400506D400F084FBC01B032818
:10048000F6D30320C2E1DFF86C06016831F0FE41CB
:100490002A6951EA02610160C7E7DFF8C485D8F82C
:1004A000000030F48070C8F8000000F06BFB07001B
:1004B000D8F800004005B8D500F064FBC01B032845
:1004C000F6D30320A2E1C00711D5386840084000E8
:1004D000386000F057FB80463868800707D500F089
:1004E00051FBB0EB08001228F6D303208EE13968E7
:1004F00031F01001A86901433960386850F00100FB
:10050000386000F03FFB8046386880071DD400F05B
:1005100039FBB0EB08001228F6D3032076E1DFF8B0
:10052000D085D8F8000040084000C8F8000000F06E
:1005300029FB0700D8F80000800706D500F022FB51
:10054000C01B1228F6D3032060E12878400740F151
:1005500087805FF00008DFF8A4753868C0000AD40F
:10056000386850F080503860386810F08050009043
:1005700000985FF00108DFF88895D9F80000C00501
:1005800014D4D9F8000050F48070C9F8000000F0CD
:10059000F9FA8246D9F80000C00507D400F0F2FA53
:1005A000B0EB0A000328F5D303202FE1287AC00717
:1005B00018D5DFF85005A968C909026861F3C712A8
:1005C0000260297A490708D5016851F004010160E9
:1005D000016851F0010101600EE0016851F0010174
:1005E000016009E0DFF81C05016849084900016065
:1005F000016831F004010160A868002811D000F002
:10060000C1FA8146DFF8FC04006880071FD400F0BF
:10061000B9FAB0EB090041F289318842F2D30320E4
:10062000F4E000F0AFFA8146DFF8D80401688907EA
:1006300009D500F0A7FAB0EB090041F289318842F0
:10064000F2D30320E2E0016831F0800101605FFA3B
:1006500088F8B8F1010F03D1386830F08050386065
:10066000287880062ED5A86A002815D0DFF898844F
:10067000D8F8000050F00100C8F8000000F082FA3D
:100680000700D8F8000080071CD400F07BFAC01BDC
:100690000328F6D30320B9E0DFF86C84D8F8000013
:1006A00040084000C8F8000000F06CFA0700D8F8D5
:1006B0000000800706D500F065FAC01B0328F6D3BA
:1006C0000320A3E0E86A002800F09F80E86A02287F
:1006D00040F08180306810F003012A6B91421CD1F8
:1006E00010F070016A6B521EB1EB021F15D110F4AD
:1006F000FE41AA6BB1EB022F0FD110F4C001EA6BDF
:100700005208521EB1EB425F07D110F0C060296C55
:100710004908491EB0EB416F43D00C2C3FD0DFF8A5
:100720004043206830F08070206000F02BFA070012
:100730002068800106D500F025FAC01B0328F7D3F6
:10074000032063E03168DFF8C4030140286B0143F4
:10075000686B401E51EA0011A86B51EA0021E86B5A
:100760004008401E51EA4051286C4008401E51EAA2
:1007700040613160206850F080702060306850F037
:100780008070306000F0FEF90500206880013CD4E4
:1007900000F0F8F9401B0328F7D3032036E00120CE
:1007A00034E0DFF8BC42206880012ED4206850F08D
:1007B00080702060306850F08070306000F0E2F9A6
:1007C00005002068800120D400F0DCF9401B0328DC
:1007D000F7D303201AE00C2C1AD0DFF884522868D3
:1007E00030F08070286000F0CDF9040028688001A6
:1007F00006D500F0C7F9001B0328F7D3032005E056
:100800003168DFF80C03014031600020BDE8F68755
:100810000120FBE72DE9F04104000E00002C01D17E
:100820000120B1E0DFF8EC52286810F00700B04278
:100830000BD22868C008C00030432860286810F038
:100840000700B04201D001209EE0207880070DD53E
:10085000DFF81012086810F0F000A268904205D28C
:100860000A6832F0F002A06802430A602078C007EC
:1008700040D56068032806D1DFF8E40100688001F4
:100880001CD4012080E06068022806D1DFF8D00186
:100890000068800312D4012076E06068002806D149
:1008A000DFF8BC010068800708D401206CE0DFF8A5
:1008B000B0010068400501D4012065E0DFF8A471B3
:1008C00039688908890060680143396000F05AF985
:1008D0008046386810F00C006168B0EB810F09D0D9
:1008E00000F050F9B0EB080041F289318842F0D3B2
:1008F000032049E0207880070DD5DFF86811A06853
:100900000A6812F0F002904205D20A6832F0F00252
:10091000A06802430A60286810F0070086420BD2E4
:100920002868C008C00030432860286810F007001D
:10093000B04201D0012027E02078400706D5494980
:100940000A6832F4E062E06802430A602078000737
:1009500007D54448016831F46051226951EAC20167
:10096000016000F013F8DFF890113E4A1268C2F3FC
:100970000312895C11F01F01C8403B4908603B48E5
:10098000006800F0D1F8C0B2BDE8F08110B40023D7
:1009900000213448006810F00C00354A146814F047
:1009A0000304002803D00C2814D1012C12D12C4BA5
:1009B0001C68240704D44E4B1B68C3F3032302E0D6
:1009C0001B68C3F30313544C54F82330002808D198
:1009D000190006E0042801D1504902E0082800D19E
:1009E0004F490C281CD1106810F00300022802D0D7
:1009F000032802D003E0494B01E0494BFFE71068B0
:100A0000C0F30211491C1068C0F306204343B3FB36
:100A1000F1F01168C1F34161491C4900B0FBF1F1EB
:100A2000080010BC704710480068704780B5FFF799
:100A3000FAFF3C490B4A1268C2F30222895C11F0AA
:100A40001F01C84002BD80B5FFF7EDFF3549054ADB
:100A50001268C2F3C222895C11F01F01C84002BDB6
:100A60000010024008100240040000200000002096
:100A70000C1002407CB505000024204E3068C000F8
:100A800002D500F085F80EE0306850F080503060FC
:100A9000306810F080500090009800F079F83168CC
:100AA00031F080513160B0F5007F07D1812D10D336
:100AB000A12D01D302240CE001240AE0812D01D3F1
:100AC000032406E0802D01D1022402E0702D00D124
:100AD000012410480168C908C90021430160006869
:100AE00010F00700A04201D0012000E0002076BDF8
:100AF00094100240041002402C1D000858100240BF
:100B00000070004090100240981002408C809FF9C5
:100B1000FCFFEFFE00200240F81B00080024F40058
:100B200000127A00681D000838B50400002512493B
:100B3000087800281BD04FF47A700978B0FBF1F0E8
:100B40000E490968B1FBF0F000F0D6F800280CD18E
:100B5000102C08D2002221005FF0FF3000F0BBF81B
:100B60000748046004E0012502E0012500E00125BA
:100B70002800C0B232BD00BF0800002004000020E1
:100B80000000002001480068704700BF900000206E
:100B9000DFF87800006810F4C0607047B0F5007F9F
:100BA00024D1DFF86800016811F4C061B1F5007F5D
:100BB00029D00121026861F34A220260DFF8500067
:100BC000016832204143DFF84C00B1FBF0F0401CDB
:100BD00000E0401EDFF840100A68520501D50028E9
:100BE000F7D1086840050ED503200DE0DFF81C00A2
:100BF000016811F4C061B1F5806F04D00221026870
:100C000061F34A220260002070470000007000403B
:100C10000400002040420F001470004010F0070054
:100C2000374B1A684FF6FF010A4052EA0022354856
:100C300002431A60704732480068C0F302207047D0
:100C4000020052B2002A04D409012F4A40B21154C2
:100C500007E009012D4A40B210F00F00104400F8DF
:100C6000041C704710B410F00700D0F10703052BE7
:100C700001D3042301E0D0F10703041D072C01D2A6
:100C8000002000E0C01E012414FA03F35B1E19408B
:100C9000814014FA00F0401E1040084310BC704719
:100CA00080B5411EB1F1807F01D301200EE0401ECE
:100CB000174908600F215FF0FF30FFF7C1FF0020E8
:100CC00014490860072014490860002002BD80B55F
:100CD000FFF7A4FF01BD70B504000D001600002051
:100CE000FFF7A9FF32002900FFF7BCFF0100200039
:100CF00040B2FFF7A5FF70BD80B5FFF7D1FF02BD81
:100D00000CED00E00000FA0500E400E018ED00E062
:100D100014E000E018E000E010E000E010B504008E
:100D2000002C01D1012035E0A0690028FFD1A06F7F
:100D3000002805D1002084F87400200000F0C1FADA
:100D40002420A067206800684008400021680860EF
:100D5000200000F020F8012801D101201AE0606A8B
:100D6000002802D0200000F06DF92068406830F4BF
:100D70009040216848602068806830F02A0021682F
:100D800088602068006850F0010021680860200039
:100D900000F0C5F910BD38B504000025A149206850
:100DA0008842FFD0A2682069024360690243E0697B
:100DB0000243206803689C4803401A43206802608D
:100DC0002068426832F44052E06802432068426082
:100DD000A2692068884201D0206A024320688068A6
:100DE00030F4306002432068826020688F4A90426D
:100DF00015D18F48006810F00300002805D00228A4
:100E000005D006D3032806D007E001205BE00220CE
:100E100059E0042057E0082055E0102053E02068F6
:100E2000844A904216D18248006810F00C000028D5
:100E300006D0042808D0082804D00C2806D007E0E3
:100E4000002040E002203EE004203CE008203AE0A0
:100E5000102038E02068784A904216D17448006823
:100E600010F03000002806D0102808D0202804D028
:100E7000302806D007E0002025E0022023E00420EF
:100E800021E008201FE010201DE02068884219D1D1
:100E90006748006810F44060002809D0B0F5806F02
:100EA0000AD0B0F5006F05D0B0F5406F06D007E06E
:100EB000002008E0022006E0042004E0082002E010
:100EC000102000E0102022688A423CD1C0B20028E5
:100ED00006D0022807D0042807D0082808D00AE046
:100EE000FFF7A4FD09E0554807E0FFF74FFD04E0D8
:100EF0004FF4004001E000200125002800F08B8025
:100F0000626803214A43904203D361680903814226
:100F100001D201257FE00021090241EA10610002AF
:100F2000626852080023801859416268002300F06B
:100F300021FAB0F54071424A914202D22168C8605C
:100F400069E0012567E0E169B1F5004F34D1C0B235
:100F5000002808D0012809D002280AD004280AD085
:100F600008280BD00DE0FFF761FD0CE0FFF76BFDEB
:100F700009E0324807E0FFF709FD04E04FF40040C4
:100F800001E000200125002845D06168490811EBE7
:100F900040016068B1FBF0F04FF6F071B0F1100263
:100FA0008A4207D20140C0F34200014389B220685F
:100FB000C16030E001252EE0C0B2002808D0012831
:100FC00009D002280AD004280AD008280BD00DE046
:100FD000FFF72CFD0CE0FFF736FD09E0174807E0AE
:100FE000FFF7D4FC04E04FF4004001E000200125AD
:100FF000002810D0616810EB51006168B0FBF1F07F
:10100000B0F110014FF6F072914203D280B2216824
:10101000C86000E00125002060660020A06628006E
:10102000C0B232BD00800040F369FFEF00380140DC
:101030008810024000440040004800400024F400B2
:1010400000FD0F0090F82410C90707D501684A6811
:1010500032F40032816A0A4301684A6090F8241031
:10106000890707D501684A6832F48032C16A0A43A9
:1010700001684A6090F82410490707D501684A685A
:1010800032F48022016B0A4301684A6090F8241010
:10109000090707D501684A6832F40042416B0A43E8
:1010A00001684A6090F82410C90607D501688A686B
:1010B00032F48052816B0A4301688A6090F82410F0
:1010C000890607D501688A6832F40052C16B0A4369
:1010D00001688A6090F82410490613D501684A68AF
:1010E00032F48012016C0A4301684A60016CB1F568
:1010F000801F07D101684A6832F4C002416C0A437C
:1011000001684A6090F82410090607D501684A680A
:1011100032F40022816C0A4300684260704738B59F
:1011200004000020C4F88000FFF72CFD05002068B3
:10113000006800070DD57FF07E4000902B00002254
:101140005FF40011200000F021F8002801D00320F6
:101150001BE02068006840070DD57FF07E400090BE
:101160002B0000225FF48001200000F00FF800281F
:1011700001D0032009E02020A0672020E0670020A4
:101180002066002084F87400002032BD2DE9F04173
:1011900005000E0090461F00069C2868C06930407C
:1011A000B04201D1012000E000204146C9B288428E
:1011B00058D114F1010FF0D0FFF7E4FCC01B8442BA
:1011C00001D3002C1FD1286850E8001F31F4D071E2
:1011D0002A6842E800100028F5D12868083050E855
:1011E000001F49084900286810F1080242E8001071
:1011F0000028F2D12020A8672020E867002085F889
:10120000740003202FE0286800684007C5D52868CF
:10121000C0690005C1D54FF40060296808622868DC
:1012200050E8001F31F4D0712A6842E8001000280D
:10123000F5D12868083050E8001F4908490028689F
:1012400010F1080242E800100028F2D12020A8671F
:101250002020E8672020C5F88000002085F8740071
:10126000032000E00020BDE8F0810EE00268436842
:10127000024408305FEAC37C44BF4B445B1E52F813
:1012800004CB43F804CB091FF9D150F8041B002903
:10129000ECD1704781B03348016851F00101016021
:1012A000006810F00100009000982F48016851F08C
:1012B00080510160006810F080500090009801B0EB
:1012C000704718B593B0040014220021684600F05E
:1012D00069F93422002106A800F064F92068234946
:1012E00088423DD1022006900020089006A800F018
:1012F00063F9002801D000F037FB1B48016851F466
:1013000000310160006810F400300590059818481D
:10131000016851F001010160006810F001000590C2
:1013200005980420009002200190002002900320E4
:1013300003900720049069465FF0904000F016FB90
:101340004FF4004000900220019000200290032002
:1013500003900320049069465FF0904000F006FB84
:1013600014B010BD6010024058100240004400400C
:101370004C100240BBBBE1B1B2F5803F80F07E80F3
:10138000022A1ED98C46B1FBF2F102FB11C31B04E9
:1013900043EA1043B3FBF2FC02FB1C3380B240EA89
:1013A0000343B3FBF2F002FB103240EA0C4000238F
:1013B0007047022A05D98446B0FBF2F002FB10C246
:1013C00070474AB105D100F0010249085FEA3000D8
:1013D000704700220023704700F0A2BB0B00020000
:1013E000002100207047904271EB030CF6D3B3F557
:1013F000803F2FD2F0B5B3FA83F7B1FA81F4A7F1A9
:101400000F0E3D1B5340CEF1200602FA0EF2F341BF
:101410005340B5F10F0746D80F3C2C444140C4F16E
:101420002006A040F1414140B1FBF3F603FB161149
:10143000A2FB0645001BA94102D2761E8018594125
:1014400080EA010221FA0EF362FA0EF200215A40FC
:101450003046F0BD30B4B1FBF3FC03FB1C11A2FB22
:101460000C45001BA94103D2ACF1010C8018594175
:1014700030BC02460B46604600217047B2F1807FC7
:1014800065D3F0B5B2FA82F7B1FA81F4C7F10F066D
:101490003D1B22FA06F307F1110EF24120355A40A6
:1014A000B5F10F07B8D94140C4F12006A040F14181
:1014B0004140B1FBF3FC03FB1C11A2FB0C45001BDC
:1014C000A94103D2BCF1010C801859410F2F12D34E
:1014D0000F3FC90341EA5041B1FBF3F603FB16117C
:1014E000A2FB0645D4EBC030A94102D2761E80187B
:1014F000594146EACC3C07B34140C7F12006B84009
:10150000F1414140B1FBF3F603FB1611A2FB064586
:10151000001BA94102D2761E8018594180EA0102BF
:1015200021FA0EF3C7F1200462FA0EF20CFA07F06A
:101530005A402CFA04F13043F0BD80EA010221FA4E
:101540000EF3002162FA0EF260465A40F0BD8C465E
:10155000B1FBF2F102FB11C31B0243EA1063B3FBC0
:10156000F2FC02FB1C331B024CEA002043EA10632E
:10157000B3FBF2FC02FB1C331B024CEA002043EAE3
:101580001063B3FBF2FC02FB1C331B024CEA00208D
:1015900043EA1063B3FBF2FC02FB1C324CEA00206E
:1015A0000023704710B5044610460A4601462046FF
:1015B00000F0B8FA204610BD2DE9FC4704000027D2
:1015C00000252068800373D55FF00008DFF8106203
:1015D0003068C0000AD4306850F080503060306805
:1015E00010F08050009000985FF00108DFF8F4914F
:1015F000D9F8000050F48070C9F80000FFF7C2FA73
:101600008246D9F80000C00506D4FFF7BBFAB0EB5C
:101610000A000328F5D303273800C0B200283DD1C3
:10162000DFF8C491D9F8000010F44070002814D0FD
:10163000216B884211D0D9F8000030F44070D9F8FD
:10164000001051F48031C9F80010D9F8001031F4BD
:101650008031C9F80010C9F80000C0070FD5FFF7A6
:1016600091FA8246D9F80000800708D4FFF78AFA79
:10167000B0EB0A0041F289318842F3D303273800E6
:10168000C0B2002808D1D9F8001031F44071206BA5
:101690000143C9F8001002E03D0000E03D005FFAA0
:1016A00088F8B8F1010F03D1306830F08050306015
:1016B0002078C00707D5DFF834110A689208920035
:1016C000606802430A602078800707D5DFF81C11A4
:1016D0000A6832F00C02A06802430A6020784007D2
:1016E00007D5DFF808110A6832F03002E0680243DB
:1016F0000A602078800607D5DFF8F0100A6832F417
:101700004062206902430A602068800507D5DFF83F
:10171000DC100A6832F44022206A02430A60206822
:10172000400507D5DFF8C4100A6832F44012606A39
:1017300002430A602078400607D5DFF8B0100A6837
:1017400032F44052606902430A602078000607D5EF
:10175000DFF898100A6832F44042A06902430A6038
:101760002068C00507D5DFF884100A6832F44032DB
:10177000E06902430A602068800411D5DFF86C102C
:101780000A6832F04062A06A02430A60A06AB0F1BF
:10179000006F05D1DFF85800016851F48011016035
:1017A0002068400311D5DFF844100A6832F0406227
:1017B000E06A02430A60E06AB0F1006F05D1DFF829
:1017C0003000016851F4801101602800C0B2BDE80A
:1017D000F6870848016851F0040101607047000075
:1017E00058100240007000409010024088100240E3
:1017F0000C1002400010024080B500F0C7F900F064
:1018000005F800F06FF800F04FF8FEE780B596B0ED
:101810004422002105A8FFF7C5FE142200216846D6
:10182000FFF7C0FE4FF40070FFF7B8F9002801D0B1
:1018300000F09AF800F0BCF94648016831F0180150
:101840000160142005900120079001200C900020D9
:101850000D9060200E900220109001201190012028
:10186000129028201390022014900220159005A8B1
:10187000FEF78CFC002801D000F076F80F200090D5
:10188000032001900020029000200390002004908B
:1018900004216846FEF7BEFF002801D000F064F87E
:1018A000FFF797FF17B000BD80B52B482B490160AB
:1018B0005FF461214160002181600021C16000214D
:1018C00001610C214161002181610021C161002180
:1018D000016200214162FFF721FA002801D000F0E7
:1018E00043F801BD10B586B01422002101A8FFF70E
:1018F00059FE1B48016851F004010160016811F0B4
:10190000040100910099016851F001010160016832
:1019100011F0010100910099016851F0020101608C
:10192000006810F00200009000980E4C0022082180
:10193000200000F0DAF80820019001200290002039
:1019400003900020049001A9200000F00FF806B0D9
:1019500010BD0000901002400C0000200044004028
:101960004C1002400004004872B6FEE7F8B40200D2
:10197000002430E0072603E0604EB242FAD103268D
:10198000A70017F00C07BE4035432600B60843F801
:1019900026505B4D2B6883434E68F60200D5034307
:1019A0002B60584D2B6883434E68B60200D5034325
:1019B0002B60554D2B6883434E68B60300D5034317
:1019C0002B60524D2B6883434E68F60301D51843B4
:1019D00003002B60641C0868E040002800F083804E
:1019E0000126086816FA04F318400028F2D00B7993
:1019F00013F00303012B04D00B7913F00303022B24
:101A000012D19568032763009F40BD43CF686300F0
:101A10009F403D4395605368A640B3434D68C5F36E
:101A20000015A5402B4353600B7913F00303032BE0
:101A300009D0D568032663009E40B5438E686300D5
:101A40009E403543D5600B7913F00303022B15D16B
:101A50002300DB0802EB83031B6A0F25A60016F0A8
:101A60001C06B540AB430D69A60016F01C06B54038
:101A70002B432500ED0802EB85052B621568032634
:101A800063009E40B5430E7916F0030663009E4046
:101A9000354315604B6813F4403F9BD01C4B1D68C9
:101AA00055F001051D601B6813F001030093009BB6
:101AB000184B2500AD0853F825500F26A70017F046
:101AC0000C07BE40B543B2F1904F01D1002657E755
:101AD000114EB24201D1012652E7104EB2427FF4BC
:101AE0004BAF02264CE7F1BC7047D2B2002A02D0BD
:101AF00089B2816101E089B281627047000C0048BF
:101B0000080401400C0401400404014000040140A9
:101B1000601002400800014000040048000800482E
:101B20007047000062F30F2262F31F42401810F06A
:101B3000030308D0C91A1FD3DB0748BF00F8012DE3
:101B400028BF20F8022D130030B414461546103972
:101B500028BF20E93C00FAD8490728BF20E90C003B
:101B600048BF40F8042D890028BF20F8022D48BF47
:101B700000F8012D30BC7047C91818BF00F8012DBE
:101B8000CB0728BF00F8012D7047000010B50024D6
:101B90000320FFF79CF80020FEF7C6FF002801D0C5
:101BA000012401E0FFF776FB2000C0B210BD000069
:101BB0000248016851F48071016070470070004074
:101BC00030B4002512E050F8042BD30744BF4A4438
:101BD000521E091F042942F8045BFAD213468C07EF
:101BE00044BF15809B1CC90748BF1D7050F8041BDB
:101BF0000029E8D130BC7047A0860100400D0300E9
:101C0000801A060000350C0040420F0080841E0040
:101C100000093D0000127A000024F40000366E0135
:101C20000048E801006CDC0210B50749794418311E
:101C3000064C7C44163404E00A68081D11448847A9
:101C40000146A142F8D110BD2C0000004C0000005C
:101C50004EF68851CEF20001086840F4700008602A
:101C6000BFF34F8FBFF36F8F4FF00170E1EE100A9B
:101C7000704700004DFFFFFF880000000C000020AF
:101C800000000000E7F5FFFF0C000000D00000009E
:101C9000000000200000000000F00DF8002801D036
:101CA000FFF7C2FFAFF300800020AFF30080FFF723
:101CB000A3FD00F002F80120704700F001B8000019
:101CC0000746384600F002F8FBE7000080B5AFF3A6
:101CD0000080024A11001820ABBEFBE7260002007C
:101CE0000548014603B4684680F30988AFF30080D5
:101CF000FFF7AEFFFFF7D0FFA5EDF5FE0348016843
:101D0000034A127889180160704700BF90000020D4
:101D100008000020FEE7FEE7FEE7FEE7FEE770476B
:101D20007047704780B5FFF7E9FF01BD0000000074
:101D3000000000000102030406070809014880476B
:101D4000014800474D1D0008E11C000802480168D9
:101D500051F470010160704788ED00E01000000050
:101D600000093D0001000000000000000102030422
:101D7000FFF7FEBFFFF7FEBFFFF7FEBFFFF7FEBF97
:101D8000FFF7FEBFFFF7FEBFFFF7FEBFFFF7FEBF87
:101D9000FFF7FEBFFFF7FEBFFFF7FEBFFFF7FEBF77
:101DA000FFF7FEBFFFF7FEBFFFF7FEBFFFF7FEBF67
:101DB000FFF7FEBFFFF7FEBFFFF7FEBFFFF7FEBF57
:101DC000FFF7FEBFFFF7FEBFFFF7FEBFFFF7FEBF47
:101DD000FFF7FEBFFFF7FEBFFFF7FEBFFFF7FEBF37
:101DE000FFF7FEBFFFF7FEBFFFF7FEBFFFF7FEBF27
:101DF000FFF7FEBFFFF7FEBFFFF7FEBFFFF7FEBF17
:101E0000FFF7FEBFFFF7FEBFFFF7FEBFFFF7FEBF06
:101E1000FFF7FEBFFFF7FEBFFFF7FEBFFFF7FEBFF6
:101E2000FFF7FEBFFFF7FEBFFFF7FEBFFFF7FEBFE6
:101E3000FFF7FEBFFFF7FEBFFFF7FEBFFFF7FEBFD6
:101E4000FFF7FEBFFFF7FEBFFFF7FEBFFFF7FEBFC6
:0400000508001CE1F2
:00000001FF
