:020000040800F2
:100000000805002091320008693200086B320008B0
:100010006D3200086F3200087132000800000000E5
:100020000000000000000000000000007332000823
:1000300075320008000000007732000879320008AD
:10004000C5320008C9320008CD320008D13200089C
:10005000D5320008D9320008DD320008E13200084C
:10006000E5320008E9320008ED320008F1320008FC
:10007000F5320008F9320008FD32000801330008AB
:1000800005330008093300080D33000800000000A4
:100090000000000000000000000000001133000814
:1000A00015330008193300081D33000821330008F8
:1000B000253300080000000000000000293300087C
:1000C0002D33000831330008353300083933000878
:1000D0003D33000841330008453300084933000828
:1000E0004D330008513300080000000000000000FC
:1000F0000000000000000000000000000000000000
:1001000000000000000000000000000000000000EF
:10011000000000000000000055330008000000004F
:10012000593300085D330008613300086533000867
:10013000693300080000000000000000000000001B
:100140006D330008713300087533000879330008F7
:100150007D330008813300088533000889330008A7
:100160008D330008913300080000000000000000FB
:1001700000000000953300080000000000000000AF
:10018000993300089D330008A1330008826832F0DB
:10019000E072114381607047806810F0E070704732
:1001A00010B410F1600414EB81042168DFF8D4036B
:1001B000014012F0F8420A431A4352F00042226012
:1001C00010BC7047603010EB8100006810F0F84000
:1001D0007047603010EB8100016821F000410A4354
:1001E00002607047426922F000421143416170474A
:1001F000C06810F4406F01D1012000E0002070477A
:10020000C06C10F0C00F01D1012000E00020704749
:10021000C06810F000707047C368DFF86C231340AB
:100220001943C160704730B414300B00DB0D13F07C
:1002300004031818036807240D002D0D15F01F0581
:10024000AC40A343090D11F01F0112FA01F119434B
:10025000016030BC704710B4D0F8B0404B035B0B6A
:100260009C43DFF8283312F01802D34019404903A9
:10027000490B2143C0F8B01010BC7047806810F0E3
:100280001F007047806810F0010070478368DFF836
:100290000423134011F08041194351F00041816063
:1002A00070478068C00F70478068800810F00100B8
:1002B00070478268DFF8D8120A4052F00802826064
:1002C00070478068C00810F0010070477CB50400DA
:1002D0000D000020009094F85000012801D1022068
:1002E0003AE0012084F85000200001F0A7F8060051
:1002F0003000C0B2002826D1606D30F4885050F034
:100300000200606529002068FFF7C0FF2068FFF742
:10031000C8FF002811D00098401C00900098B0F54C
:10032000912FF3D3606D30F0020050F01000606543
:10033000002084F8500001200EE00120616D60F380
:100340000101616503E0606D50F010006065002000
:1003500084F850003000C0B276BD70B50500DFF8FB
:100360003802FFF78BFF04002868FFF7AAFF002878
:1003700001D002206DE02868C06810F000402968B4
:10038000C96C11F0C0010843002805D1686D50F018
:100390002000686501205CE095F85000012801D13B
:1003A000022056E0012085F85000280000F0DEFF12
:1003B00006003000C0B2002846D1686DC00504D5E3
:1003C000A86D30F00800A86501E00020A865696DFF
:1003D000DFF8C801014051F480516965DFF8C001C0
:1003E0002968814202D1DFF8BC1100E029682A683F
:1003F000914201D0002C03D1696D31F480116965FF
:1004000060212A681160002185F850102968814216
:1004100002D1DFF8900100E028682968884205D001
:10042000002C03D0062C01D0072C08D12868FFF738
:10043000EFFE00280BD12868FFF73BFF07E0686D4F
:1004400050F48010686502E0002085F8500030000C
:10045000C0B270BD2DE9F04106000C00DFF8380194
:10046000FFF70CFF05007069082801D1402700E064
:10047000202701F037F8804630680068384217D1ED
:1004800014F1010FF8D001F02DF8B0EB0800844210
:1004900001D3002CF0D1306800683842ECD1706D87
:1004A00050F004007065002086F8500003204CE0F6
:1004B0003068FFF7A5FE04003068FFF799FEDFF80B
:1004C000E01032688A4202D1DFF8D82000E03268BA
:1004D00033689A4205D0002D03D0062D01D0072D98
:1004E00002D13168C96807E032688A4202D1DFF878
:1004F000B41000E03168C968726D52F40052726540
:10050000002C05D18A0114D4002812D0880410D4FC
:100510003068006840060CD588020AD4706D30F44B
:1005200080507065706DC00503D4706D50F001008F
:100530007065402F05D1480406D4602031680860FA
:1005400002E02020316808600020BDE8F081B1F5AC
:10055000877F0ED0B1F5057F07D040F21A32914265
:100560000BD10068D0F88C000AE00068D0F8880051
:1005700006E00068D0F8840002E00068D0F880004F
:100580007047000000F0FF03FFFFDF7FFFFF070061
:10059000C0FFFF7FC0FFFF3F00030450FEDFFFFFEF
:1005A00000010450000004502DE9FC4105000F003B
:1005B000002600200090002128690028DFF8F0853F
:1005C000F8684045FFD195F85000012801D102207C
:1005D00067E2012085F850002869002802D0B86938
:1005E00001281FD1786808284CD1386A00280BD020
:1005F0003968890C11F4F85197F8200010F03C008C
:100600000143786A014303E03968890C11F4F85119
:100610002868C26CDFF89C0502400A432868C2645F
:10062000E9652FE0286E002812D1B86928660020FD
:10063000E865386A002809D0B969491E97F8200092
:1006400010F03C000143786A014301E0B969491E9A
:100650003868C0F384603A7912F01F029040014379
:10066000286E401E2866E86D0143E965286E002863
:1006700008D12868C16CDFF83C050140E86D0143F2
:100680002868C1642868FFF71CFE002818D1787F0D
:1006900000280CD12868C06830F44010B97F50EAB7
:1006A0004150397F50EA01502968C86008E0286845
:1006B000C06830F44010B97F50EA41502968C860E2
:1006C0002868FFF7F1FD04002868FFF7FAFD0443EE
:1006D000002C40F00681386A002802D0786A002891
:1006E00010D1787F012806D12868C06850F00070CA
:1006F0002968C86015E02868C06830F00070296873
:10070000C8600EE0787F012805D1686D50F02000A8
:100710006865012605E02868C06830F00070296827
:10072000C86097F8280001280CD12868016931F4C5
:10073000FF71F86A0143386B014351F002012868E8
:10074000016105E02868006930F00200296808614D
:10075000B868B0F1004F0AD1002239682868FFF765
:1007600062FD5FF000412868FFF73CFD08E0BA68D1
:1007700039682868FFF757FD00212868FFF732FD28
:1007800078692968C968C1F3C1035B0010FA03F3F3
:100790003869042805D03A6839692868FFF700FDF0
:1007A0009FE000212868FFF70DFD400306D10021DE
:1007B0002868FFF707FDC0F3846007E00021286880
:1007C000FFF700FD90FAA0F0B0FA80F03968490315
:1007D00003D13968C1F3846104E0396891FAA1F169
:1007E000B1FA81F1884204D1002200212868FFF784
:1007F000F0FC01212868FFF7E5FC400306D1012148
:100800002868FFF7DFFCC0F3846007E00121286857
:10081000FFF7D8FC90FAA0F0B0FA80F039684903ED
:1008200003D13968C1F3846104E0396891FAA1F118
:10083000B1FA81F1884204D1002201212868FFF732
:10084000C8FC02212868FFF7BDFC400306D1022145
:100850002868FFF7B7FCC0F3846007E0022128682E
:10086000FFF7B0FC90FAA0F0B0FA80F039684903C5
:1008700003D13968C1F3846104E0396891FAA1F1C8
:10088000B1FA81F1884204D1002202212868FFF7E1
:10089000A0FC03212868FFF795FC400306D1032143
:1008A0002868FFF78FFCC0F3846007E00321286805
:1008B000FFF788FC90FAA0F0B0FA80F0396849039D
:1008C00003D13968C1F3846104E0396891FAA1F178
:1008D000B1FA81F1884204D1002203212868FFF790
:1008E00078FC2868FFF7CEFC002840F08E80FA687C
:1008F00039682868FFF7AFFCF868404540F085800C
:100900003868400303D13868C0F3846004E0386875
:1009100090FAA0F0B0FA80F0401C10F01F000A28F6
:1009200036D23868400303D13868C0F3846104E0EC
:10093000386890FAA0F0B0FA80F13868400303D12B
:100940003868C0F3846004E0386890FAA0F0B0FA28
:1009500080F03A68520303D13A68C2F3846204E03B
:100960003A6892FAA2F2B2FA82F2491C890611F0B0
:10097000F8410123401C10F01F0013FA00F001435E
:10098000521C12F01F020320424351EA025138E088
:100990003868400303D13868C0F3846104E03868E4
:1009A00090FAA0F0B0FA80F13868400303D13868BB
:1009B000C0F3846004E0386890FAA0F0B0FA80F0E8
:1009C0003A68520303D13A68C2F3846204E03A6899
:1009D00092FAA2F2B2FA82F2491C890611F0F841A9
:1009E0000123401C10F01F0013FA00F00143521CB9
:1009F00012F01F020A3A0320424351EA025151F019
:100A00000071BA682868FFF70EFC38686A49084226
:100A100042D0654C2000FFF7BFFB01003868674AF1
:100A200090421AD1080218D428685E4A904233D105
:100A300051F400012000FFF7A9FB614800686149FB
:100A4000B0FBF1F1891C0C20414300910098002873
:100A500022D00098401E0090F8E738685A4A904229
:100A60000BD1C80109D428684E4A904214D151F0E4
:100A700080712000FFF78AFB0EE03868534A9042ED
:100A80000AD1480208D42868464A904204D151F459
:100A900080012000FFF77AFB002085F8500030002D
:100AA000C0B2BDE8F6812DE9F04399B005000F0012
:100AB00000263868002895F85000012801D102204E
:100AC0006DE0012085F85000002015900020169060
:100AD000DFF8D0802868404502D13448009001E01A
:100AE000002000900098002808D1686D50F0200088
:100AF0006865002085F85000012050E00098FFF75D
:100B0000D3FB04002868FFF7CFFB0443002C3CD143
:100B1000DFF894903868002820D0D9F8081031F414
:100B200060417868014395F8300051EA4031C9F8D6
:100B300008104046FFF7A6FB04001C48FFF7A2FB85
:100B40000443002C26D1D9F8081021480140386808
:100B50000143B8680143C9F808101BE0D9F8080040
:100B600030F46040C9F808004046FFF78BFB0400F2
:100B70000E48FFF787FB0443002C0BD1D9F808106F
:100B800013480140C9F8081004E0686D50F02000D7
:100B900068650126002085F850003000C0B219B009
:100BA000BDE8F0830000045000030450000104502D
:100BB00000007F400020088200000880000052C72B
:100BC00004000020400D0300000084CB01000080E1
:100BD000E0F0FFFF38B505002868FFF765FB04006B
:100BE0002868FFF76EFB0443002C06D15FF000413C
:100BF0002868FFF711FB002000E00120C0B232BDE1
:100C0000826832F47C12114381607047826832F04E
:100C1000E072114381607047806810F0E0707047A7
:100C200010B410F1600414EB81042168DFF80C03A8
:100C3000014012F0F8420A431A4352F00042226087
:100C400010BC7047603010EB8100006810F0F84075
:100C50007047603010EB8100016821F000410A43C9
:100C600002607047426922F00042114341617047BF
:100C700030B410F130030800800910F00C00C318E4
:100C80001C681F2511F01F008540AC43C2F384602F
:100C900011F01F0110FA01F12143196030BC7047B7
:100CA00030B414300B00DB0D13F004031818036884
:100CB00007240D002D0D15F01F05AC40A343090DB1
:100CC00011F01F0112FA01F11943016030BC7047A5
:100CD00010B4D0F8B0404B035B0B9C43DFF860329C
:100CE00012F01802D34019404903490B2143C0F8C0
:100CF000B01010BC70478268DFF848120A4082606A
:100D000070478068400F10F0010070478268DFF87C
:100D100038120A4052F08052826070478068000F9B
:100D200010F0010070478268DFF81C120A4052F090
:100D30000102826070478268DFF80C120A4052F0AC
:100D4000020282607047806810F00100704780687E
:100D5000400810F0010070478068800810F0010022
:100D600070478068C00810F0010070477CB504002F
:100D7000002600200090002C01D10120DDE0206938
:100D8000002802D094F820000128606D002807D1C7
:100D9000200000F0C4FB0020A065002084F8500073
:100DA0002068FFF7AEFF002802D02068FFF7A3FFFE
:100DB0002068FFF7B3FF002813D12068FFF7A6FFD4
:100DC000DFF888010068DFF88811B0FBF1F0401C03
:100DD0004000009002E00098401E0090009800281B
:100DE000F9D12068FFF79AFF002808D1606D50F014
:100DF00010006065A06D50F00100A065012620681C
:100E0000FFF7AAFF616DC90600F19080002840F04D
:100E10008D80606D30F4807050F002006065206855
:100E2000FFF791FF002810D1DFF82801FFF78BFFB3
:100E30000500DFF82401FFF786FF0543002D04D1EC
:100E40006168DFF81801FFF7DBFE607E616B51EA35
:100E50004031E0680143A068014394F8200051EA62
:100E6000004194F82000012803D1606A401E51EA35
:100E70004041A06A002805D0A06A10F470700143B8
:100E8000E06A01432068C268DFF8D40002401143E1
:100E90002068C1602068FFF75FFF05002068FFF74A
:100EA00060FF0543002D28D1207E94F830104900C2
:100EB00051EA80312068C268DFF8A800024011437F
:100EC0002068C16094F83800012810D120680169B9
:100ED0006FF38A01E06B0143206C0143606C0143B6
:100EE000A06C014351F001012068016105E0206818
:100EF000006940084000216808612069012809D183
:100F00002068006B00090001E169491E084321685F
:100F1000086305E02068006B000900012168086390
:100F20000120616D60F30101616504E0606D50F0C6
:100F30001000606501263000C0B276BD00F0FF03EE
:100F4000FFFF0700C0FFFF5FC0FFFF7F040000201E
:100F5000400D030000000450000104500003045041
:100F600007C0F0FFFDBFFFFF2DE9FC4106000F00A9
:100F7000002500200090DFF8A884F8684045FFD1E4
:100F800096F85000012801D10220EDE1012086F8F9
:100F900050003068FFF7E0FE002840F0DB81786801
:100FA000062818D27868022806D012D3042809D05F
:100FB00005D3052809D00CE00C2078600BE0122046
:100FC000786008E01820786005E04FF48070786061
:100FD00001E0062078603A6879683068FFF748FEDB
:100FE0003068FFF7B9FE04003068FFF7BAFE04432B
:100FF000002C40F0C980B868B0F1004F0AD100223F
:1010000039683068FFF74CFE5FF000413068FFF749
:1010100029FE08E0BA6839683068FFF741FE002110
:101020003068FFF71FFE78693168C968C1F3C103F2
:101030005B0010FA03F33869042805D03A6839696F
:101040003068FFF7EDFD9FE000213068FFF7FAFD03
:10105000400306D100213068FFF7F4FDC0F384603F
:1010600007E000213068FFF7EDFD90FAA0F0B0FA3C
:1010700080F03968490303D13968C1F3846104E021
:10108000396891FAA1F1B1FA81F1884204D10022C4
:1010900000213068FFF7DDFD01213068FFF7D2FD48
:1010A000400306D101213068FFF7CCFDC0F3846016
:1010B00007E001213068FFF7C5FD90FAA0F0B0FA13
:1010C00080F03968490303D13968C1F3846104E0D1
:1010D000396891FAA1F1B1FA81F1884204D1002274
:1010E00001213068FFF7B5FD02213068FFF7AAFD46
:1010F000400306D102213068FFF7A4FDC0F38460ED
:1011000007E002213068FFF79DFD90FAA0F0B0FAE9
:1011100080F03968490303D13968C1F3846104E080
:10112000396891FAA1F1B1FA81F1884204D1002223
:1011300002213068FFF78DFD03213068FFF782FD43
:10114000400306D103213068FFF77CFDC0F38460C3
:1011500007E003213068FFF775FD90FAA0F0B0FAC0
:1011600080F03968490303D13968C1F3846104E030
:10117000396891FAA1F1B1FA81F1884204D10022D3
:1011800003213068FFF765FD3068FFF7DCFD0028BC
:1011900040F08E80FA6839683068FFF799FDF8688A
:1011A000404540F085803868400303D13868C0F37B
:1011B000846004E0386890FAA0F0B0FA80F0401C37
:1011C00010F01F000A2836D23868400303D138686F
:1011D000C0F3846104E0386890FAA0F0B0FA80F1BE
:1011E0003868400303D13868C0F3846004E038688D
:1011F00090FAA0F0B0FA80F03A68520303D13A684E
:10120000C2F3846204E03A6892FAA2F2B2FA82F27D
:10121000491C890611F0F8410123401C10F01F0001
:1012200013FA00F00143521C12F01F020320424344
:1012300051EA025138E03868400303D13868C0F3FE
:10124000846104E0386890FAA0F0B0FA80F1386860
:10125000400303D13868C0F3846004E0386890FA32
:10126000A0F0B0FA80F03A68520303D13A68C2F3B2
:10127000846204E03A6892FAA2F2B2FA82F2491C5D
:10128000890611F0F8410123401C10F01F0013FAE9
:1012900000F00143521C12F01F020A3A032042439D
:1012A00051EA025151F00071BA683068FFF7F8FC5A
:1012B0003868DFF87011084251D0DFF85C41200037
:1012C000FFF7AAFC01003868DFF85C2190421DD1CD
:1012D00008021BD43068DFF8442190423FD151F41A
:1012E00000012000FFF792FCDFF840010068DFF802
:1012F0004011B0FBF1F1491C0C20414300910098D2
:1013000000282CD00098401E0090F8E73868DFF8DD
:10131000242190420CD1C8010AD43068DFF8FC20A7
:1013200090421CD151F080712000FFF76FFC16E055
:101330003868DFF80421904211D148020FD4306898
:10134000DFF8D82090420AD151F480012000FFF745
:101350005DFC04E0706D50F02000706501250020F8
:1013600086F850002800C0B2BDE8F68138B5040008
:10137000002000902068FFF7E6FC002849D1206893
:1013800080686FF39E10002809D0606D50F0100047
:101390006065A06D50F00100A06501203AE0206872
:1013A000FFF7C1FC1C48FFF737FC00020FD51F48B0
:1013B00000681F49B0FBF1F1491C0C20414300912A
:1013C00002E00098401E009000980028F9D100F03B
:1013D00089F8050020680068C0071AD42068FFF764
:1013E000B2FC002802D12068FFF79DFC00F07AF8DB
:1013F000401B0328EED320680068C007EAD4606D64
:1014000050F010006065A06D50F00100A065012053
:1014100000E0002032BD0000000304500000045032
:1014200000007F4000000880000052C70400002038
:10143000400D0300000084CB0100008038B505009A
:101440002868FFF784FC04002868FFF77CFC00286C
:1014500031D0002C2FD12868806810F00D000128B1
:101460001FD12868FFF767FC03202968086000F097
:1014700039F8040028688068C0071CD500F032F8ED
:10148000001B0328F6D328688068C007F2D5686D72
:1014900050F010006865A86D50F00100A8650120AB
:1014A0000AE0686D50F010006865A86D50F001000A
:1014B000A865012000E0002032BD0EE0026843680C
:1014C000024408305FEAC37C44BF4B445B1E52F8C1
:1014D00004CB43F804CB091FF9D150F8041B0029B1
:1014E000ECD1704701480068704700BF0001002040
:1014F00081B04948016851F001010160006810F0B5
:101500000100009000984548016851F08051016049
:10151000006810F080500090009801B0704710B53E
:1015200086B004001422002101A800F07FF8206892
:101530003B4988421DD13B48016851F4005101608C
:10154000016811F4005100910099016851F0010106
:101550000160006810F001000090009838200190B0
:101560000B2002900020039001A95FF0904000F052
:1015700067F806B010BD18B593B00400142200211E
:10158000684600F053F83422002106A800F04EF817
:101590002068254988423DD102200690002008900D
:1015A00006A800F027F9002801D000F0CBFB1B486B
:1015B000016851F400310160006810F400300590BA
:1015C00005981848016851F001010160006810F0A9
:1015D0000100059005980420009002200190002051
:1015E0000290032003900720049069465FF090402A
:1015F00000F026F84FF400400090022001900020F7
:101600000290032003900320049069465FF090400D
:1016100000F016F814B010BD6010024058100240DF
:10162000000004504C1002400044004010B5044635
:1016300010460A460146204600F086FB204610BDB3
:10164000F8B40200002430E0072603E0604EB24206
:10165000FAD10326A70017F00C07BE403543260039
:10166000B60843F826505B4D2B6883434E68F6025C
:1016700000D503432B60584D2B6883434E68B60258
:1016800000D503432B60554D2B6883434E68B6034A
:1016900000D503432B60524D2B6883434E68F603FD
:1016A00001D5184303002B60641C0868E040002843
:1016B00000F083800126086816FA04F31840002819
:1016C000F2D00B7913F00303012B04D00B7913F044
:1016D0000303022B12D19568032763009F40BD438B
:1016E000CF6863009F403D4395605368A640B34375
:1016F0004D68C5F30015A5402B4353600B7913F0DB
:101700000303032B09D0D568032663009E40B5432D
:101710008E6863009E403543D5600B7913F0030358
:10172000022B15D12300DB0802EB83031B6A0F2574
:10173000A60016F01C06B540AB430D69A60016F0D6
:101740001C06B5402B432500ED0802EB85052B62F6
:101750001568032663009E40B5430E7916F0030614
:1017600063009E40354315604B6813F4403F9BD0A7
:101770001C4B1D6855F001051D601B6813F001032B
:101780000093009B184B2500AD0853F825500F26F9
:10179000A70017F00C07BE40B543B2F1904F01D13E
:1017A000002657E7114EB24201D1012652E7104EF2
:1017B000B2427FF44BAF02264CE7F1BC7047D2B285
:1017C000002A02D089B2816101E089B2816270474A
:1017D000000C0048080401400C04014004040140CE
:1017E000000401406010024008000140000400486D
:1017F000000800482DE9FC47040000270025206868
:10180000800373D55FF00008DFF810623068C00015
:101810000AD4306850F080503060306810F080504A
:10182000009000985FF00108DFF8F491D9F800000B
:1018300050F48070C9F80000FFF754FE8246D9F8D2
:101840000000C00506D4FFF74DFEB0EB0A000328E8
:10185000F5D303273800C0B200283DD1DFF8C4918A
:10186000D9F8000010F44070002814D0216B884291
:1018700011D0D9F8000030F44070D9F8001051F4BC
:101880008031C9F80010D9F8001031F48031C9F85E
:101890000010C9F80000C0070FD5FFF723FE8246ED
:1018A000D9F80000800708D4FFF71CFEB0EB0A004F
:1018B00041F289318842F3D303273800C0B20028AF
:1018C00008D1D9F8001031F44071206B0143C9F8F8
:1018D000001002E03D0000E03D005FFA88F8B8F13A
:1018E000010F03D1306830F0805030602078C0079D
:1018F00007D5DFF834110A68920892006068024345
:101900000A602078800707D5DFF81C110A6832F0DA
:101910000C02A06802430A602078400707D5DFF870
:1019200008110A6832F03002E06802430A60207849
:10193000800607D5DFF8F0100A6832F440622069AB
:1019400002430A602068800507D5DFF8DC100A68CA
:1019500032F44022206A02430A602068400507D51D
:10196000DFF8C4100A6832F44012606A02430A6069
:101970002078400607D5DFF8B0100A6832F44052EC
:10198000606902430A602078000607D5DFF89810E6
:101990000A6832F44042A06902430A602068C00528
:1019A00007D5DFF884100A6832F44032E069024358
:1019B0000A602068800411D5DFF86C100A6832F0E4
:1019C0004062A06A02430A60A06AB0F1006F05D1CC
:1019D000DFF85800016851F480110160206840036D
:1019E00011D5DFF844100A6832F04062E06A024321
:1019F0000A60E06AB0F1006F05D1DFF830000168DD
:101A000051F4801101602800C0B2BDE8F687084893
:101A1000016851F004010160704700005810024055
:101A20000070004090100240881002400C100240EC
:101A30000010024010B500F0BBF900F02AF800F0E9
:101A400030F900F010F900F072F8B14C7F2120005D
:101A5000FEF73CFC2000FEF780FC01212000FEF791
:101A6000F9FC012000F0B6F908212000FEF76FFD17
:101A7000A84908604FF487712000FEF768FDA64969
:101A800008604FF405712000FEF761FDA34908606E
:101A9000E0E780B596B04422002105A8FFF7C6FD17
:101AA000142200216846FFF7C1FD4FF4007000F0DA
:101AB000ABF9002801D000F045F900F0E5F99848AD
:101AC000016831F018010160142005900120079091
:101AD00001200C9000200D9060200E9002201090AC
:101AE00001201190012012902820139002201490C0
:101AF0000220159005A800F0CFF9002801D000F0D1
:101B000021F90F2000900320019000200290002076
:101B10000390002004900421684600F001FD002895
:101B200001D000F00FF9FFF772FF17B000BD38B514
:101B300096B00C22002113A8FFF778FD182200218F
:101B40000DA8FFF773FD342200216846FFF76EFDF4
:101B50006F4C74482060002060600020A06000206E
:101B6000E0600120206104206061002020760120D7
:101B700060760120E061002084F820000020A0624F
:101B80000020E062002084F8300000206063002024
:101B900084F838002000FFF7E9F8002801D000F0B1
:101BA000D1F80020139013A92000FEF77CFF002835
:101BB00001D000F0C7F82000FFF70CF85A4D0D9542
:101BC00006200E9000200F907F201090042011908E
:101BD000002012900DA92000FFF7C6F9002801D0BF
:101BE00000F0B0F8009508200190002002907F20BE
:101BF000039004200490002005900320069000200C
:101C00008DF81C0000208DF81D0000208DF81E00AE
:101C1000002008900020099000208DF828006946D7
:101C20002000FEF7C1FC002801D000F08BF83F48EF
:101C300000904FF48770019069462000FEF7B4FCD5
:101C4000002801D000F07EF8394800904FF405706C
:101C5000019069462000FEF7A7FC002801D000F0A3
:101C600071F817B030BD80B53248334901605FF478
:101C700061214160002181600021C160002101617A
:101C80000C214161002181610021C16100210162BB
:101C90000021416200F0CEFD002801D000F052F892
:101CA00001BD10B586B01422002101A8FFF7BEFCCB
:101CB0002248016851F004010160016811F004013B
:101CC00000910099016851F001010160016811F073
:101CD000010100910099016851F002010160006862
:101CE00010F0020000900098154C002208212000FE
:101CF000FFF765FD0820019001200290002003906D
:101D00000020049001A92000FFF79AFC06B010BD46
:101D100090000020F4000020F8000020FC000020CB
:101D20009010024000000450000180210002B02504
:101D30000004002A0C000020004400404C10024027
:101D40000004004872B6FEE762F30F2262F31F42FE
:101D5000401810F0030308D0C91A1FD3DB0748BF8F
:101D600000F8012D28BF20F8022D130030B41446CE
:101D70001546103928BF20E93C00FAD8490728BF8A
:101D800020E90C0048BF40F8042D890028BF20F846
:101D9000022D48BF00F8012D30BC7047C91818BF8C
:101DA00000F8012DCB0728BF00F8012D7047000077
:101DB00010B50024032001F03EF8002001F062F885
:101DC000002801D0012401E0FFF792FB2000C0B2FF
:101DD00010BD000038B50400FFF784FB050014F1C6
:101DE000010F02D0044800782418FFF77BFB401B4A
:101DF000A042FAD331BD00BF08000020DFF8780010
:101E0000006810F4C0607047B0F5007F24D1DFF89F
:101E10006800016811F4C061B1F5007F29D001218B
:101E2000026861F34A220260DFF850000168322044
:101E30004143DFF84C00B1FBF0F0401C00E0401ED5
:101E4000DFF840100A68520501D50028F7D108686C
:101E500040050ED503200DE0DFF81C00016811F4E9
:101E6000C061B1F5806F04D00221026861F34A229B
:101E70000260002070470000007000400400002055
:101E800040420F00147000400248016851F4807114
:101E900001607047007000402DE9FC470500002DEF
:101EA00001D1012038E3DFF8C888D8F8004014F0E9
:101EB0000C04DFF8C868376817F003072878C006F5
:101EC00040F1AC80002C03D00C2C76D1012F74D1C2
:101ED000DFF89898D9F80000800704D5E869002851
:101EE00001D1012018E3D9F80000000704D5D9F882
:101EF000000010F0F00005E0DFF8000900680009BC
:101F000010F0F000696A884237D2686A00F038FC45
:101F1000002801D00120FFE2D9F8000050F00800AD
:101F2000C9F80000D9F8001031F0F001686A0143E7
:101F3000C9F80010DFF8C808016831F47F412A6A47
:101F400051EA0221016000F0A7FBDFF8B818D8F8C9
:101F50000020C2F30312895C11F01F01C840DFF8B2
:101F600014180860DFF81008006800F08BFF01000B
:101F7000C9B2002952D0C0B2CEE2D9F8000050F068
:101F80000800C9F80000D9F8001031F0F001686AC3
:101F90000143C9F80010DFF86808016831F47F4197
:101FA0002A6A51EA02210160002CCCD1686A00F053
:101FB000E7FB0028C7D00120AEE2E869002840D046
:101FC000DFF8A887D8F8000050F00100C8F800003A
:101FD000FFF788FA8146D8F80000800707D4FFF79A
:101FE00081FAB0EB09000328F5D3032094E2D8F876
:101FF000000050F00800C8F80000D8F8001031F0D8
:10200000F001686A0143C8F80010DFF8F4070168BE
:1020100031F47F412A6A51EA022101602878C00721
:102020006DD5082C03D00C2C22D1032F20D1DFF842
:102030003C070068800362D5686800285FD10120F2
:102040006AE2DFF82887D8F8000040084000C8F8A6
:102050000000FFF747FA8146D8F800008007DDD579
:10206000FFF740FAB0EB09000328F5D3032053E251
:102070006868B0F5803F06D1DFF8F006016851F4DA
:102080008031016018E06868B0F5A02F0AD1DFF850
:10209000DC06016851F480210160016851F480314F
:1020A000016009E0DFF8C406016831F480310160A5
:1020B000016831F480210160686800280FD0FFF7C3
:1020C00011FA8046DFF8A4060068800317D4FFF7F2
:1020D00009FAB0EB08006528F4D303201CE2FFF7EF
:1020E00001FA8046DFF884060068800307D5FFF711
:1020F000F9F9B0EB08006528F4D303200CE2287846
:10210000800718D5042C03D00C2C29D1022F27D1FD
:10211000DFF858060068400504D5E868002801D1BA
:102120000120F9E1DFF8D806016831F0FE412A69A3
:1021300051EA026101602878000740F18C806869EB
:10214000002872D0DFF8B4763868A96910F0100260
:10215000914258D010F0030102293AD10120DBE16D
:10216000E86800281FD0DFF80486D8F8000050F493
:102170008070C8F80000FFF7B5F90700D8F8000034
:10218000400506D4FFF7AEF9C01B0328F6D30320A1
:10219000C2E1DFF86C06016831F0FE412A6951EABC
:1021A00002610160C7E7DFF8C485D8F8000030F4A9
:1021B0008070C8F80000FFF795F90700D8F8000014
:1021C0004005B8D5FFF78EF9C01B0328F6D30320CE
:1021D000A2E1C00711D53868400840003860FFF719
:1021E00081F980463868800707D5FFF77BF9B0EBA7
:1021F00008001228F6D303208EE1396831F010016F
:10220000A86901433960386850F001003860FFF771
:1022100069F98046386880071DD4FFF763F9B0EB91
:1022200008001228F6D3032076E1DFF8D085D8F82D
:10223000000040084000C8F80000FFF753F907000D
:10224000D8F80000800706D5FFF74CF9C01B12280C
:10225000F6D3032060E12878400740F187805FF0E3
:102260000008DFF8A4753868C0000AD4386850F058
:1022700080503860386810F08050009000985FF00F
:102280000108DFF88895D9F80000C00514D4D9F802
:10229000000050F48070C9F80000FFF723F982466F
:1022A000D9F80000C00507D4FFF71CF9B0EB0A000D
:1022B0000328F5D303202FE1287AC00718D5DFF8CB
:1022C0005005A968C909026861F3C7120260297A3A
:1022D000490708D5016851F004010160016851F017
:1022E000010101600EE0016851F00101016009E0A7
:1022F000DFF81C050168490849000160016831F0F8
:1023000004010160A868002811D0FFF7EBF88146AE
:10231000DFF8FC04006880071FD4FFF7E3F8B0EB98
:10232000090041F289318842F2D30320F4E0FFF73B
:10233000D9F88146DFF8D8040168890709D5FFF785
:10234000D1F8B0EB090041F289318842F2D3032081
:10235000E2E0016831F0800101605FFA88F8B8F1CD
:10236000010F03D1386830F080503860287880063B
:102370002ED5A86A002815D0DFF89884D8F8000078
:1023800050F00100C8F80000FFF7ACF80700D8F8DB
:10239000000080071CD4FFF7A5F8C01B0328F6D364
:1023A0000320B9E0DFF86C84D8F800004008400052
:1023B000C8F80000FFF796F80700D8F8000080077B
:1023C00006D5FFF78FF8C01B0328F6D30320A3E040
:1023D000E86A002800F09F80E86A022840F08180C7
:1023E000306810F003012A6B91421CD110F070018B
:1023F0006A6B521EB1EB021F15D110F4FE41AA6B9D
:10240000B1EB022F0FD110F4C001EA6B5208521E3B
:10241000B1EB425F07D110F0C060296C4908491E3A
:10242000B0EB416F43D00C2C3FD0DFF84043206825
:1024300030F080702060FFF755F8070020688001B9
:1024400006D5FFF74FF8C01B0328F7D3032063E03E
:102450003168DFF8C4030140286B0143686B401EFC
:1024600051EA0011A86B51EA0021E86B4008401EB8
:1024700051EA4051286C4008401E51EA40613160E9
:10248000206850F080702060306850F080703060BC
:10249000FFF728F80500206880013CD4FFF722F8F8
:1024A000401B0328F7D3032036E0012034E0DFF897
:1024B000BC42206880012ED4206850F080702060DB
:1024C000306850F080703060FFF70CF8050020682D
:1024D000800120D4FFF706F8401B0328F7D3032020
:1024E0001AE00C2C1AD0DFF88452286830F0807083
:1024F0002860FEF7F7FF04002868800106D5FEF784
:10250000F1FF001B0328F7D3032005E03168DFF853
:102510000C03014031600020BDE8F6870120FBE795
:102520002DE9F04104000E00002C01D10120B1E0A2
:10253000DFF8EC52286810F00700B0420BD2286890
:10254000C008C00030432860286810F00700B0427F
:1025500001D001209EE0207880070DD5DFF8101211
:10256000086810F0F000A268904205D20A6832F0C4
:10257000F002A06802430A602078C00740D5606876
:10258000032806D1DFF8E401006880011CD4012093
:1025900080E06068022806D1DFF8D001006880037F
:1025A00012D4012076E06068002806D1DFF8BC0173
:1025B0000068800708D401206CE0DFF8B0010068F3
:1025C000400501D4012065E0DFF8A471396889086D
:1025D0008900606801433960FEF784FF80463868EF
:1025E00010F00C006168B0EB810F09D0FEF77AFFA4
:1025F000B0EB080041F289318842F0D3032049E072
:10260000207880070DD5DFF86811A0680A6812F0FD
:10261000F002904205D20A6832F0F002A06802434C
:102620000A60286810F0070086420BD22868C008AC
:10263000C00030432860286810F00700B04201D085
:10264000012027E02078400706D549490A6832F47E
:10265000E062E06802430A602078000707D544483A
:10266000016831F46051226951EAC201016000F051
:1026700013F8DFF890113E4A1268C2F30312895C26
:1026800011F01F01C8403B4908603B48006800F05A
:10269000F9FBC0B2BDE8F08110B40023002134483A
:1026A000006810F00C00354A146814F00304002888
:1026B00003D00C2814D1012C12D12C4B1C682407F8
:1026C00004D44E4B1B68C3F3032302E01B68C3F31F
:1026D0000313544C54F82330002808D1190006E0A5
:1026E000042801D1504902E0082800D14F490C28A4
:1026F0001CD1106810F00300022802D0032802D079
:1027000003E0494B01E0494BFFE71068C0F30211B9
:10271000491C1068C0F306204343B3FBF1F0116875
:10272000C1F34161491C4900B0FBF1F1080010BC44
:10273000704710480068704780B5FFF7FAFF3C49C2
:102740000B4A1268C2F30222895C11F01F01C840D3
:1027500002BD80B5FFF7EDFF3549054A1268C2F3A7
:10276000C222895C11F01F01C84002BD0010024066
:102770000810024004000020000000200C1002405D
:102780007CB505000024204E3068C00002D5FFF75C
:1027900035FB0EE0306850F080503060306810F04B
:1027A000805000900098FFF729FB316831F080518C
:1027B0003160B0F5007F07D1812D10D3A12D01D359
:1027C00002240CE001240AE0812D01D3032406E059
:1027D000802D01D1022402E0702D00D10124104887
:1027E0000168C908C90021430160006810F00700B2
:1027F000A04201D0012000E0002076BD94100240EC
:10280000041002408032000858100240007000405E
:1028100090100240981002408C809FF9FCFFEFFE60
:10282000002002404C3100080024F40000127A001D
:10283000BC32000810B50400002C01D1012035E0A5
:10284000A0690028FFD1A06F002805D1002084F8DE
:1028500074002000FEF78FFE2420A0672068006827
:102860004008400021680860200000F020F801289E
:1028700001D101201AE0606A002802D0200000F097
:102880006DF92068406830F4904021684860206805
:10289000806830F02A00216888602068006850F065
:1028A000010021680860200000F0C5F910BD38B5AE
:1028B00004000025A14920688842FFD0A268206951
:1028C000024360690243E0690243206803689C4850
:1028D00003401A43206802602068426832F4405284
:1028E000E068024320684260A2692068884201D003
:1028F000206A02432068806830F430600243206818
:10290000826020688F4A904215D18F48006810F08D
:102910000300002805D0022805D006D3032806D0DE
:1029200007E001205BE0022059E0042057E0082086
:1029300055E0102053E02068844A904216D1824826
:10294000006810F00C00002806D0042808D00828E1
:1029500004D00C2806D007E0002040E002203EE032
:1029600004203CE008203AE0102038E02068784A53
:10297000904216D17448006810F03000002806D04C
:10298000102808D0202804D0302806D007E00020E6
:1029900025E0022023E0042021E008201FE0102091
:1029A0001DE02068884219D16748006810F4406033
:1029B000002809D0B0F5806F0AD0B0F5006F05D0BF
:1029C000B0F5406F06D007E0002008E0022006E0E6
:1029D000042004E0082002E0102000E0102022681B
:1029E0008A423CD1C0B2002806D0022807D0042871
:1029F00007D0082808D00AE0FFF79EFE09E05548F6
:102A000007E0FFF749FE04E04FF4004001E000203A
:102A10000125002800F08B80626803214A43904220
:102A200003D361680903814201D201257FE00021BF
:102A3000090241EA1061000262685208002380180E
:102A400059416268002300F04BFAB0F54071424AE8
:102A5000914202D22168C86069E0012567E0E1691E
:102A6000B1F5004F34D1C0B2002808D0012809D0F8
:102A700002280AD004280AD008280BD00DE0FFF75E
:102A80005BFE0CE0FFF765FE09E0324807E0FFF768
:102A900003FE04E04FF4004001E00020012500287F
:102AA00045D06168490811EB40016068B1FBF0F066
:102AB0004FF6F071B0F110028A4207D20140C0F324
:102AC0004200014389B22068C16030E001252EE058
:102AD000C0B2002808D0012809D002280AD0042852
:102AE0000AD008280BD00DE0FFF726FE0CE0FFF718
:102AF00030FE09E0174807E0FFF7CEFD04E04FF491
:102B0000004001E000200125002810D0616810EB92
:102B100051006168B0FBF1F0B0F110014FF6F072B6
:102B2000914203D280B22168C86000E001250020F4
:102B300060660020A0662800C0B232BD0080004060
:102B4000F369FFEF00380140881002400044004064
:102B5000004800400024F40000FD0F0090F824100D
:102B6000C90707D501684A6832F40032816A0A430E
:102B700001684A6090F82410890707D501684A68FF
:102B800032F48032C16A0A4301684A6090F8241026
:102B9000490707D501684A6832F48022016B0A436D
:102BA00001684A6090F82410090707D501684A684F
:102BB00032F40042416B0A4301684A6090F82410E5
:102BC000C90607D501688A6832F48052816B0A43CE
:102BD00001688A6090F82410890607D501688A6820
:102BE00032F40052C16B0A4301688A6090F82410E5
:102BF000490613D501684A6832F48012016C0A4311
:102C000001684A60016CB1F5801F07D101684A680C
:102C100032F4C002416C0A4301684A6090F8241003
:102C2000090607D501684A6832F40022816C0A431C
:102C300000684260704738B504000020C4F8800086
:102C4000FEF750FC05002068006800070DD57FF0F6
:102C50007E4000902B0000225FF40011200000F065
:102C600021F8002801D003201BE0206800684007FD
:102C70000DD57FF07E4000902B0000225FF4800194
:102C8000200000F00FF8002801D0032009E02020E8
:102C9000A0672020E06700202066002084F87400F0
:102CA000002032BD2DE9F04105000E0090461F00C6
:102CB000069C2868C0693040B04201D1012000E084
:102CC00000204146C9B2884258D114F1010FF0D01A
:102CD000FEF708FCC01B844201D3002C1FD12868DA
:102CE00050E8001F31F4D0712A6842E80010002833
:102CF000F5D12868083050E8001F490849002868C5
:102D000010F1080242E800100028F2D12020A86744
:102D10002020E867002085F8740003202FE0286851
:102D200000684007C5D52868C0690005C1D54FF4C3
:102D3000006029680862286850E8001F31F4D071EB
:102D40002A6842E800100028F5D12868083050E8C9
:102D5000001F49084900286810F1080242E80010E5
:102D60000028F2D12020A8672020E8672020C5F89D
:102D70008000002085F87400032000E00020BDE8FA
:102D8000F081000010F00700374B1A684FF6FF0182
:102D90000A4052EA0022354802431A60704732481E
:102DA0000068C0F302207047020052B2002A04D427
:102DB00009012F4A40B2115407E009012D4A40B2DF
:102DC00010F00F00104400F8041C704710B410F00D
:102DD0000700D0F10703052B01D3042301E0D0F154
:102DE0000703041D072C01D2002000E0C01E0124AF
:102DF00014FA03F35B1E1940814014FA00F0401EE0
:102E00001040084310BC704780B5411EB1F1807F6F
:102E100001D301200EE0401E174908600F215FF02A
:102E2000FF30FFF7C1FF0020144908600720144954
:102E30000860002002BD80B5FFF7A4FF01BD70B59A
:102E400004000D0016000020FFF7A9FF3200290042
:102E5000FFF7BCFF0100200040B2FFF7A5FF70BDE7
:102E600080B5FFF7D1FF02BD0CED00E00000FA05D0
:102E700000E400E018ED00E014E000E018E000E0FD
:102E800010E000E038B50400002512490878002859
:102E90001BD04FF47A700978B0FBF1F00E49096845
:102EA000B1FBF0F0FFF7DCFF00280CD1102C08D2AA
:102EB000002221005FF0FF30FFF7C1FF07480460E8
:102EC00004E0012502E0012500E001252800C0B250
:102ED00032BD00BF080000200400002000000020D8
:102EE000BBBBE1B1B2F5803F80F07E80022A1ED9E3
:102EF0008C46B1FBF2F102FB11C31B0443EA104301
:102F0000B3FBF2FC02FB1C3380B240EA0343B3FB89
:102F1000F2F002FB103240EA0C4000237047022A14
:102F200005D98446B0FBF2F002FB10C270474AB1EB
:102F300005D100F0010249085FEA30007047002225
:102F40000023704700F0E4B80B00020000210020CD
:102F50007047904271EB030CF6D3B3F5803F2FD24C
:102F6000F0B5B3FA83F7B1FA81F4A7F10F0E3D1B68
:102F70005340CEF1200602FA0EF2F3415340B5F170
:102F80000F0746D80F3C2C444140C4F12006A04016
:102F9000F1414140B1FBF3F603FB1611A2FB0645DC
:102FA000001BA94102D2761E8018594180EA010215
:102FB00021FA0EF362FA0EF200215A403046F0BDBB
:102FC00030B4B1FBF3FC03FB1C11A2FB0C45001B4E
:102FD000A94103D2ACF1010C8018594130BC024622
:102FE0000B46604600217047B2F1807F65D3F0B593
:102FF000B2FA82F7B1FA81F4C7F10F063D1B22FA4B
:1030000006F307F1110EF24120355A40B5F10F07D2
:10301000B8D94140C4F12006A040F1414140B1FB84
:10302000F3FC03FB1C11A2FB0C45001BA94103D2BE
:10303000BCF1010C801859410F2F12D30F3FC90367
:1030400041EA5041B1FBF3F603FB1611A2FB064522
:10305000D4EBC030A94102D2761E8018594146EA0D
:10306000CC3C07B34140C7F12006B840F141414094
:10307000B1FBF3F603FB1611A2FB0645001BA941A9
:1030800002D2761E8018594180EA010221FA0EF31D
:10309000C7F1200462FA0EF20CFA07F05A402CFA3B
:1030A00004F13043F0BD80EA010221FA0EF3002161
:1030B00062FA0EF260465A40F0BD8C46B1FBF2F166
:1030C00002FB11C31B0243EA1063B3FBF2FC02FBD9
:1030D0001C331B024CEA002043EA1063B3FBF2FCF2
:1030E00002FB1C331B024CEA002043EA1063B3FBD3
:1030F000F2FC02FB1C331B024CEA002043EA106383
:10310000B3FBF2FC02FB1C324CEA002000237047A8
:10311000704730B4002512E050F8042BD30744BFA9
:103120004A44521E091F042942F8045BFAD213468E
:103130008C0744BF15809B1CC90748BF1D7050F801
:10314000041B0029E8D130BC70470000A0860100B4
:10315000400D0300801A060000350C0040420F00AD
:1031600080841E0000093D0000127A000024F40053
:1031700000366E010048E801006CDC0210B507491A
:1031800079441831064C7C44163404E00A68081D62
:10319000114488470146A142F8D110BD2C0000001F
:1031A0004C0000004EF68851CEF20001086840F451
:1031B00070000860BFF34F8FBFF36F8F4FF0017047
:1031C000E1EE100A704700004BFFFFFFF80000001F
:1031D0000C00002000000000E3E2FFFF0C000000F4
:1031E000D0000000000000200000000000F00DF8FA
:1031F000002801D0FFF7C2FFAFF300800020AFF33B
:103200000080FEF717FC00F002F80120704700F084
:1032100001B800000746384600F002F8FBE700005E
:1032200080B5AFF30080024A11001820ABBEFBE767
:10323000260002000548014603B4684680F3098869
:10324000AFF30080FFF7AEFFFFF7D0FFA5EDF5FE6F
:1032500003480168034A127889180160704700BF6B
:103260000001002008000020FEE7FEE7FEE7FEE781
:10327000FEE770477047704780B5FFF7E9FF01BD73
:103280000000000000000000010203040607080916
:103290000148804701480047A13200083532000844
:1032A0000248016851F470010160704788ED00E048
:1032B0001000000000093D000100000000000000B7
:1032C00001020304FFF7FEBFFFF7FEBFFFF7FEBFDB
:1032D000FFF7FEBFFFF7FEBFFFF7FEBFFFF7FEBF22
:1032E000FFF7FEBFFFF7FEBFFFF7FEBFFFF7FEBF12
:1032F000FFF7FEBFFFF7FEBFFFF7FEBFFFF7FEBF02
:10330000FFF7FEBFFFF7FEBFFFF7FEBFFFF7FEBFF1
:10331000FFF7FEBFFFF7FEBFFFF7FEBFFFF7FEBFE1
:10332000FFF7FEBFFFF7FEBFFFF7FEBFFFF7FEBFD1
:10333000FFF7FEBFFFF7FEBFFFF7FEBFFFF7FEBFC1
:10334000FFF7FEBFFFF7FEBFFFF7FEBFFFF7FEBFB1
:10335000FFF7FEBFFFF7FEBFFFF7FEBFFFF7FEBFA1
:10336000FFF7FEBFFFF7FEBFFFF7FEBFFFF7FEBF91
:10337000FFF7FEBFFFF7FEBFFFF7FEBFFFF7FEBF81
:10338000FFF7FEBFFFF7FEBFFFF7FEBFFFF7FEBF71
:10339000FFF7FEBFFFF7FEBFFFF7FEBFFFF7FEBF61
:0433A000FFF7FEBF76
:040000050800323588
:00000001FF
